:0200000460009A
:10000000464346420004015600000000010303007D
:100010000101000001040000400000000000000099
:1000200000000000000000000000000000000000D0
:1000300000000000000000000000000000000000C0
:1000400000000000010406000000000000000000A5
:100050000000800000000000000000000000000020
:100060000000000000000000000000000000000090
:100070000000000000000000000000000000000080
:10008000EB04180A063204260000000000000000FD
:100090000504012400000000000000000000000032
:1000A0006B0418080832042600000000000000005D
:1000B0000604000000000000000000000000000036
:1000C0008104042400000000000000000000000083
:1000D00020041808000000000000000000000000DC
:1000E00001040420000000000000000000000000E7
:1000F0003204180804220000000000000000000084
:1001000090041830002400000000000000000000EF
:100110000204180800200000000000000000000099
:100120003504000000000000000000000000000096
:10013000600400000000000000000000000000005B
:10014000F5060000000000000000000000000000B4
:10015000000000000000000000000000000000009F
:10016000000000000000000000000000000000008F
:10017000000000000000000000000000000000007F
:10018000000000000000000000000000000000006F
:10019000000000000000000000000000000000005F
:1001A000000000000000000000000000000000004F
:1001B000000000000000000000000000000000003F
:1001C000000100000010000000000000000000001E
:1001D000000001000000000000000000000000001E
:1001E000000000000000000000000000000000000F
:1001F00000000000000000000000000000000000FF
:10100000D10020410020006000000000000000002E
:1010100020100060001000600000000000000000D0
:10102000000000600000800000000000FFFFFFFFE4
:1020000000000220F9110360894E00008D4E00008F
:10201000854E0000854E0000854E00000000000047
:10202000000000000000000000000000914E0000D1
:10203000854E000000000000E17F0260C59502604F
:102040009D4E0000A14E0000A54E0000A94E0000CC
:10205000AD4E0000B14E0000B54E0000B94E00007C
:10206000BD4E0000C14E0000C54E0000C94E00002C
:10207000CD4E0000D14E0000D54E0000D94E0000DC
:10208000DD4E0000854E0000854E0000854E0000AC
:10209000E14E0000E54E0000E94E0000ED4E00006C
:1020A000F14E0000F54E0000F94E0000FD4E00001C
:1020B000014F0000054F0000094F00000D4F0000C8
:1020C000114F0000154F0000194F00001D4F000078
:1020D000214F0000254F0000854E0000854E000076
:1020E000854E0000854E0000854E0000854E0000A4
:1020F000854E0000854E0000854E0000854E000094
:10210000854E0000854E0000854E0000854E000083
:10211000854E0000854E0000854E0000854E000073
:10212000294F00002D4F0000314F0000354F0000B7
:10213000394F0000854E0000854E0000854E00009E
:10214000854E0000854E0000854E0000854E000043
:10215000854E0000854E0000854E0000854E000033
:10216000854E0000854E0000854E0000854E000023
:10217000854E0000854E0000854E0000854E000013
:102180008165026091650260A1650260B1650260CF
:10219000C1650260D1650260E1650260F1650260BF
:1021A00001660260116602603D4F0000414F000071
:1021B000854E0000854E0000854E0000854E0000D3
:1021C000854E0000854E0000854E0000854E0000C3
:1021D000854E000099960260854E0000854E0000F5
:1021E000854E0000854E0000854E0000454F0000E2
:1021F000494F0000854E00004D4F0000514F000038
:10220000693C0260593C0260554F0000594F000084
:10221000854E0000854E0000854E0000854E000072
:10222000854E0000854E0000B16F0260854E0000B3
:10223000854E0000854E0000854E0000854E000052
:10224000854E0000854E0000854E0000854E000042
:10225000854E0000854E0000854E0000854E000032
:10226000854E0000854E0000854E0000854E000022
:10227000854E0000854E0000854E0000854E000012
:10228000854E0000854E0000854E0000854E000002
:10229000854E0000854E0000854E0000854E0000F2
:1022A0005D4F0000614F0000654F0000854E00004B
:1022B000694F0000854E0000854E0000854E0000ED
:1022C000854E0000854E0000854E0000854E0000C2
:1022D000854E0000854E0000854E0000854E0000B2
:1022E000854E0000854E0000854E0000854E0000A2
:1022F000854E0000854E0000854E0000854E000092
:10230000854E0000854E0000854E0000854E000081
:10231000854E0000854E0000854E0000854E000071
:10232000854E0000854E0000854E0000854E000061
:10233000854E0000854E0000854E0000854E000051
:10234000854E0000854E0000854E0000854E000041
:10235000854E0000854E0000854E0000854E000031
:10236000854E0000854E0000854E0000854E000021
:10237000854E0000854E0000854E0000854E000011
:10238000854E0000854E0000854E0000854E000001
:10239000854E0000854E0000854E0000854E0000F1
:1023A000854E0000854E0000854E0000854E0000E1
:1023B000854E0000854E0000854E0000854E0000D1
:1023C000854E0000854E0000854E0000854E0000C1
:1023D000854E0000854E0000854E0000854E0000B1
:1023E000854E0000854E0000854E0000854E0000A1
:1023F000854E0000854E0000854E0000FFFFFFFF68
:10240000024B5A69026058610020704700080020A2
:10241000024B5A6912685A61704700BF00080020D9
:10242000C460056146618761C0F81C80C0F82090D7
:10243000C0F824A0C0F828B0C0F82CD080ED0C8BD8
:1024400080ED0E9B80ED10ABC0F808E0FFF7D8BF21
:10245000104908B54B690BB925F06BF91A6858603B
:102460004A611846C468056946698769D0F81C80C6
:10247000D0F82090D0F824A0D0F828B0D0F82CD0F4
:1024800090ED0C8B90ED0E9B90ED10ABD0F808E02A
:10249000012070470008002010B50021044649F0D3
:1024A0001FFF18B914B120464AF01AF810BD0021D8
:1024B00049F016BF10B50121044649F011FF18B9C3
:1024C00014B120464AF00CF810BDFFF7E5BF10B577
:1024D00001220C464AF00CF818B914B1204649F014
:1024E000FFFF10BD4AF004B849F0EABF484308B501
:1024F0000830FFF7DCFF40B1044A536A03B11860AB
:102500000021C0E900135062083008BD0008002017
:10251000034678B153F8042C083812B153F8081C5C
:10252000116053F8083C13B15A6049F0C9BF024B1F
:102530005A62FAE7704700BF00080020054B0268A6
:102540001B6A59688A4203D3521A026018467047C0
:102550001B68F6E700080020014441F20553884259
:1025600004D398B2012838BF0120704703EB43130E
:1025700010F8012B5340F2E7034B044A1A62002281
:10258000C3F83823704700BF00080020A4AD0560E1
:102590002DE9F04780460E46FFF7DEFF124B074657
:1025A0001C6A0CB920461AE0D4F80C90002504F1FE
:1025B000180A4D4501D12468F3E7236933F8153033
:1025C000BB420ED163695B5DB3420AD132464146DC
:1025D0005AF8250026F043F918B960682844BDE888
:1025E000F0870135E5E700BF000800202DE9F8433A
:1025F00081460E46FFF7CCFF0246002840F08B8054
:10260000FF2E03D94549464849F0FAFE454C751C52
:10261000D4F8380390B1D4E9CF132B448B4229D995
:102620002944FFF75FFF0746D8B90246D4F84013A4
:10263000D4F83803FFF756FFC4F83873802D2F46BF
:1026400038BF80273846FFF732FFC4F83803D0BBC5
:102650002846FFF72CFFC4F8380398BB284649F0FA
:102660003FFFD4F83C332B44C4F83C33D4F8383320
:10267000002BE3D0D4F840333146D4F838734846C1
:102680001F442B44C4F84033FFF766FF49464FF020
:10269000000980463246384626F080F807F8069052
:1026A000236AD3E90253AB4225D36D000A2D38BF0C
:1026B0000A25C5EBC5001830FFF7F9FE48B9C4F884
:1026C0003803CBE72F460023C4F83C73C4F84033EB
:1026D000D0E700F11803226A03EB8503026003616F
:1026E00003EB450343615368D268C0F80C90134470
:1026F000C0E901352062236AD3E903215B6921F82F
:102700001280911D9E54236A43F82170D9680131CB
:10271000D9605B681A441046BDE8F88347C6046078
:10272000D83705600008002010B5044626F0A9F847
:1027300001462046BDE81040FFF758BF07B501909D
:1027400001A8FFF7FBFE019A036933F8120003B0FA
:102750005DF804FB07B5019001A8FFF7EFFE019BB0
:102760004269D05C03B05DF804FB07B5019001A895
:10277000FFF7E4FE019B063350F8230003B05DF839
:1027800004FB13B5019001A80C46FFF7D7FE019B8F
:102790004269D25C063350F82300226002B010BDBB
:1027A0002DE9F8431D460023074688460360164678
:1027B0000B6013602B60154BDFF854901C6A0CB152
:1027C0004C4505D12B68326813442B60BDE8F88373
:1027D0003B6801333B60E268D8F80030134462691B
:1027E000C8F80030E368D1188A4207D3204649F080
:1027F00073FD2B68246818442860E0E7336812F8FA
:10280000010B013303443360EEE700BF00080020F2
:10281000A4AD05602DE9F8430D4B0E4F1C6ADFF89F
:102820003880DFF838900CB1BC4201D1BDE8F883A4
:1028300004F11805E36805EB8306B54201D324686B
:10284000F1E755F8042B4146484600F0DDFCF4E77B
:1028500000080020A4AD056055C604608410056022
:1028600038B54368054619440368994211D9037B7A
:10287000DB0703D50021074849F0C2FD01F1100430
:10288000806824F0070408342146FFF720FE2C60FE
:10289000A86038BDD837056070B504460E461146AD
:1028A0001546FFF7DDFF31462A46D4E901301844CA
:1028B00025F09BFF63682B44636070BD70B546686C
:1028C0000446B14228BF31460D460121FFF7C8FF3B
:1028D000A368681C721B5919184425F086FF6368A9
:1028E000A06801332844636070BD012938B538BF42
:1028F000012104460025084621606560FFF7CCFDF4
:10290000237BA06065F30003237338BD38B505460B
:102910000C460131FFF7E9FF6C6038BD0023016010
:10292000C0E90132037B43F00103037370470000E9
:1029300038B514460546FFF7D8FF024B25606360A3
:1029400038BD00BF99280060037BDB0710B5044643
:1029500002D48068FFF7C8FD0023A36010BD13B543
:1029600001901020FFF798FD04460199FFF7BDFF85
:10297000204602B010BD10B5044650B1037BDB0702
:1029800002D48068FFF7B0FD2046BDE81040FFF795
:10299000ABBD10BD38B5037B04460D46DB0703D540
:1029A0000021074849F02CFD016880682944FFF7A1
:1029B0008EFD2368A0601D441844256038BD00BF0B
:1029C000D837056038B504460D46FFF749FFD4E90E
:1029D00001301D441844656038BDD0E9002310B5AE
:1029E0009A42044602D10121FFF7D4FF0021D4E925
:1029F0000132D154A06810BD10B50C460121FFF77B
:102A0000E1FF047010BD7F29F8B50C46CEB204D8A2
:102A10000121FFF7D7FF0670F8BD06F03F06B1F5BC
:102A2000006FC1F3871546F0800607D265F03F05B9
:102A30000221FFF7C7FF46700570EDE705F03F057F
:102A4000B1F5803FC1F3073745F0800508D267F044
:102A50001F070321FFF7B6FF457007708670DBE79D
:102A6000A40C07F03F07042164F00F0467F07F0710
:102A7000FFF7A8FF857004704770C670CCE713B5E8
:102A800004460846019125F0FCFE019902462046C5
:102A900002B0BDE81040FFF7FFBE10B51446FFF7C7
:102AA0000DFF047010BD10B51446FFF707FF04704A
:102AB00010BD43688B422CBF591A002141607047FA
:102AC00038B504461546084662688A4203D9294447
:102AD0008A4201D8606038BDA368521A184419446C
:102AE00025F083FE63685B1B6360F4E708461146CC
:102AF00049F006BD37B505460846019125F0C1FEEF
:102B0000044620B102466B68019928689847204620
:102B100003B030BD2DE9F74F89469DF830101746B8
:102B20000D9A11F0DF0F0646A2EB07023DD03029C7
:102B30000CA8254913BF80464FF0100A88464FF075
:102B4000010A13F0800535D002EBD2746510A2EBB8
:102B50006404002D35DDAB46DA45524673684146C4
:102B6000A8BF5A46306801929847019AABEB020B16
:102B7000BBF1000FF0DC2FB13D4473683A46494683
:102B800030689847002C0CDD2544A24557467368F1
:102B90004146A8BF27463068E41B3A469847002CB8
:102BA000F3DC284603B0BDE8F08FDFF820804FF05B
:102BB000100AC6E713F0010401D11546C9E714460F
:102BC000D9E70025D7E700BF9D1005608C10056090
:102BD0002DE9F043064689B00020119D9DF84880FC
:102BE000139F8DF80F000AB381421ADA2D22494251
:102BF0008DF80F20109A08AC0DF11009A2F10A000F
:102C00008E46B1FBF3FC03FB1C126146092A8CBF04
:102C10001218303204F8012D4C450ED07345EFD90F
:102C20000BE0A80727D52B228DF80F200029E1D132
:102C300030230DF11F048DF81F3015F040099DF869
:102C40000F301CD023B301222B460DF10F0130466B
:102C5000013FCDE90082FFF75DFF814608AA2B46C0
:102C600021463046121BCDE90087FFF753FF484449
:102C700009B0BDE8F0836A07D8D52022D4E7002B3D
:102C8000ECD004AA9442E9D904F8013C013CE5E700
:102C90009946E3E72DE9F04F93B081461E46C807F9
:102CA0009DF874300C4692461C9D0793DDE91E8703
:102CB0000BD4A10703D121687F4B994205D0204650
:102CC0000AF0C0FE400040F0010415F0810306D177
:102CD000079A302A03D1B845B8BFB8461F462046E8
:102CE0000DF1280B0DF0C0FF002818DBAA0712D544
:102CF0002B238DF828300DF12903E806F6B21CD5F8
:102D0000BAF1020F0DD13020194601F8020B701CE8
:102D100058700B4611E06B0701D52023E9E75B46AD
:102D2000EBE7BAF1080F62D130211970A90549BF4C
:102D300006F10E01013359700233002115F0200F06
:102D40000EA81970A3EB0B030B904FF01000069325
:102D50000CBF0B462C23012F8DF82710C8BF45F060
:102D6000400515F04002CDE90C010592CDE9026362
:102D700047D023460DAA0BA8CDE900A10CA90DF060
:102D80004FFE037882462D2B06D18DF8273000F1B7
:102D9000010A0D9B013B0D93012F40F385800D9C93
:102DA000059BBC42B8BF3C462BB19DF8273003B110
:102DB0000134069B1C44A0452EDD15F00103A8EB51
:102DC00004042AD126461C4625F001054EB12023D5
:102DD00001963A494846009300231A46FFF79AFEA7
:102DE0000646059B002B5CD1302307933AE0BAF1ED
:102DF000100FA2D13020194601F8020B06F117007E
:102E000086E70AAB0DAA0CA90BA8CDE900A32346BF
:102E10000DF006FE8246BFE700240026D4E700241A
:102E200026469DF827305BB1002301220DF12701D2
:102E3000484608F1FF38CDE90032FFF76BFE064443
:102E4000069B63B10023012259464846CDE9003272
:102E5000069AFFF75FFE069B0644A8EB0308012FC6
:102E6000D8BF4746079B51460D9A484600932B46CC
:102E70000197FFF74FFE06444CB120230F49484607
:102E80000194009300231A46FFF744FE06440B9872
:102E90000EAB984201D0FFF727FB304613B0BDE8D8
:102EA000F08F30230793BCE7059B002BB7D11C465E
:102EB0001E464746D6E700BF2C3F0560EC2406605F
:102EC0002DE9F043164698468BB00746B2070A46EE
:102ED00002A84FF0200154BFC6F380032B23DDF876
:102EE000489058BF5B010093139B09F041FBF30529
:102EF000044610D5431C1F2B0DD800F128020021D9
:102F00000DEB0204252204F8202C03F128021C46B4
:102F10006A4402F8201C16F040051DD09DF80830C8
:102F20002F2B4FF0000319D8012202A9384609F1CE
:102F3000FF39013CCDE90032FFF7ECFD0DF109014D
:102F40000546334622463846CDE90089FFF7E2FDC3
:102F500028440BB0BDE8F08302A9F2E702A91D46A0
:102F6000EFE700002DE9F04F074689B01446002531
:102F7000DFF890820B461E4613F8012BA2BBB1422C
:102F800035D30B78002B00F03681013120234FF030
:102F9000000A084610F8012B32B12B2A3CD02FD85A
:102FA000202A3CD0212A3DD04FF000094FF00A0CD6
:102FB0000E4611F8012BA2F13000092835D92E2A2E
:102FC00059D172782A2A35D000224FF00A0E0E46C7
:102FD00011F8010BA0F1300CBCF1090F2DD80EFB3C
:102FE000020BABF13002F2E7252AC4D1C7E7A6EB0A
:102FF00001097B6838684A464D4498473146C0E726
:103000002D2A05D0302ACFD14AF0400A134601E0DC
:103010004AF0010A0146BCE74AF0020AFAE74AF020
:10302000040AF7E74AF0080AF4E70CFB0922A2F1C8
:103030003009BDE7023654F8042B22EAE27B3278ED
:103040006C2A08BF01363178002900F0D480782935
:1030500060D8572912D847295AD844295AD9073451
:103060005246384624F00704CDE9009BB4EC020B2D
:10307000FFF726FF60E04FF0FF3BE0E7A1F15802C9
:10308000202A47D801A050F822F000BFC7310060C5
:103090001531006015310060153100601531006098
:1030A0001531006015310060153100601531006088
:1030B000153100602331006045310060AB310060A4
:1030C0005F3000605F3000605F300060153100608D
:1030D0001531006015310060153100601531006058
:1030E000153100601531006015310060E731006076
:1030F0005931006015310060833100601531006086
:10310000C73100601531006015310060C7310060C3
:10311000502968D07B6801223146386801359847CC
:103120000BE054F8042BCDE9003953463AB10422A0
:1031300033493846FFF7EEFC0544711C1AE70522B7
:103140004146F6E754F8042B07A98DF81C2001220C
:10315000CDE900395346ECE707A954F8040B049372
:10316000FFF70FFBBBF1FF3F0146049B04D0079A1A
:10317000934538BFCDF81CB0079ACDE900395346C6
:10318000D7E754F8041B05930846049125F079FB12
:10319000BBF1FF3F0246DDE9041302D0584528BFCA
:1031A0005A46CDE900395346C3E7CDE902396123D8
:1031B0000122CDF804A000930A2354F8041B3846DA
:1031C000FFF706FDB8E74A1C21F00F01CDF804A077
:1031D00002F006020F39CDE90239C9B2C2F110037B
:1031E00000910022E9E7CDE902396123CDF804A07E
:1031F00000931023F5E7284609B0BDE8F08F00BF23
:10320000781005607D1005600EB403B503AA52F86E
:10321000041B0192FFF7A6FE02B05DF804EB03B0B9
:10322000704790F900200378002A0ADA03F07F0340
:103230004022134207D110F8012F02F0C00180296B
:1032400005D01846704723EA02035208F1E702F05E
:103250003F0242EA8313EEE7431C1846013302782B
:1032600002F0C002802AF8D070470023814201D8C2
:103270001846704711F8012D02F0C002802A18BFCD
:103280000133F3E701440346002099421A4600D86F
:1032900070471278013302F0C002802A18BF013053
:1032A000F3E700007F289DBF024B185CC0F340008D
:1032B00000207047AE1005607F289DBF024B185C50
:1032C000C0F3C00000207047AE1005607F289DBF8E
:1032D000024B185CC0F3800000207047AE10056000
:1032E0007F289DBF024B185CC0F380100020704700
:1032F000AE1005607F2809D8064B1B5C13F00C0F3D
:1033000006D1A0F15F035842584170470020704732
:1033100001207047AE1005607F289DBF024B185CEE
:10332000C0F3001000207047AE1005607F289DBFDD
:10333000024B185CC0F3401000207047AE100560CF
:1033400008B50246FFF7E8FF00B12032104608BD7D
:1033500008B50246FFF7EAFF00B1203A104608BD63
:103360003038092884BF20F0200007387047014416
:103370000246002010B5E524914203D8B0FA80F04F
:10338000400917E012F8013B30B103F0C003802B75
:1033900011D1431ED8B2EFE7BF2B09D9F72B09D8BB
:1033A000DB0803F0060344FA03F303F00300E3E74A
:1033B0001B06E1D510BD0020FCE7023981420B4617
:1033C00003D31A880239002AF8D00233181A4010A1
:1033D0007047B2EB131F70B54FEA131416D9121BC6
:1033E00003F00F0301EB440115460E46012D31F8A1
:1033F000024B18BF3468013D24FA03F4A4B220F84C
:10340000024BF2D104B9013A104670BD0022FBE72D
:10341000F0B5059F0024D21B2646A74210D100EB31
:103420004705002301EB47019A4214D105EB420303
:103430001EB10121023325F81210181A4010F0BDF8
:1034400031F8145033F814C06544354420F8145052
:103450002E0C0134E1E731F81340344425F81340D1
:10346000260C0133E0E7F0B4049F0025D21B2C4664
:10347000AF420BD100EB4706002301EB47059A4210
:103480000FD106EB4201F0BCFFF797BF31F8156092
:10349000344433F81560A41B20F81540241401357A
:1034A000E6E735F813100C4426F8134024140133D2
:1034B000E5E7022938B538BF0221044680680D4689
:1034C00018B12368B1EB930F07D96900FEF7FFFF2E
:1034D0002368A06065F39F03236038BD38B50446B8
:1034E0000C20FEF7D9FF054623682278C3F39D0020
:1034F00023F0030302F00102400013432B606368D2
:103500006B60FEF7C9FFA8602268A168C2F39D0244
:10351000520025F043F9284638BD994210B511D321
:1035200013D800EB410002EB410209B9084610BD77
:1035300030F8023D32F8024D1B1B002B02DB04D198
:103540000139F2E74FF0FF30F1E70120EFE710B566
:10355000044638B18068FEF7C7FF2046BDE810403A
:10356000FEF7C2BF10BD70B50C4602210546FFF73D
:10357000A0FF002C2B78B5BF01220022614221461A
:1035800062F30003AA682B70012388B21446090C69
:103590001E4622F8020B03F10103F6D16E60208073
:1035A00070BD0023C0E900338360704728B1037801
:1035B0009B0702D48068FEF797BF704738B5054671
:1035C0000C464968FFF775FF22782B78A86862F3EC
:1035D00000032B706368A1686B606268BDE83840C7
:1035E000520025F0DBB80A4629B90178426062F33F
:1035F000000101707047FFF7B6BF08B5FFF7D1FFB4
:10360000BDE80840FFF7EFBF920042F002020260FF
:10361000002210B4C0E901215DF8044B1946FFF700
:10362000E2BFF8B514461D469DF818700421064601
:10363000FFF73FFF22462B4627B1002D0CDA6242EE
:1036400065EB4503317867F300013170002171604B
:1036500052EA030102D1F8BD0027F3E7D6E90110D1
:103660004C1C746020F81120120C42EA03421B0C1F
:10367000EEE72DE9F84353EC102B1E46037807467E
:1036800010EE105AF20F62F30003037047F6F07366
:1036900013EA164207D13B786FF300033B70002317
:1036A0007B60BDE8F8839A42F5D0C6F30A52A2F2D5
:1036B000FF34002CEFDB04D10121BDE8F843FFF714
:1036C00052BFA2F2EF38C6F31306332C4FEA281884
:1036D00046F480163FDCC4F13402A4F11403C4F1B3
:1036E000140406FA03F3D54026FA04F4D6401D4329
:1036F00025430024A14641463846FFF7DAFEC7F8C5
:103700000480B9F1000F05D04FEA49020021B868E2
:1037100025F083F89CB105FA04F2BB6823F8192060
:10372000C4F11003103409F10109A3F12002DD40B6
:1037300006FA04F426FA02F2DE40254315434B460E
:103740009845AED0BA6822F813502D0C013345EAE3
:103750000645360CF4E7A2F233430C34002B04F098
:103760000F04B8BFA2F224434FEA2319C3E72DE99F
:10377000F8438F18C2F35B0204460D46511C98466D
:10378000089EFFF796FE2378AC4600221FFA86FEBD
:1037900068F300032370BC456046626002D3401B9F
:1037A000BDE8F88301780CF1010CA1F13003092B7D
:1037B00005D9A1F14103192B12D8A1F13703B34266
:1037C000EDD2A06890468146B8F1000F0FD100EB12
:1037D000420113B1023120F81230091A4A10DAE717
:1037E000A1F16103192BDAD8A1F15703E7E7B9F882
:1037F000001008F1FF3801FB0E3329F8023B1B0CC7
:10380000E2E7F8B5044615461E46C1B1531E4FF017
:10381000FF371E44E90020460F310909FFF749FE32
:10382000237800216FF30003616023704DB9D4E960
:10383000011000EB4101FFF7C0FD6060F8BD0127FA
:10384000E8E700230F290ADC3278013D3E4402FA02
:1038500001F201F1080143EA02039BB2F2D162686E
:103860001039501C6060A06820F81230DEE738B5CF
:10387000057804460B7805F0010203F00103981A5D
:1038800008D1D1E90132D4E90110FFF746FEEB0778
:1038900048BF404238BD884210B5044601D0FFF70A
:1038A0008DFE23786FF30003237010BD884210B59E
:1038B000044601D0FFF782FE63683BB12378C3F36F
:1038C0000002C2F1010262F30003237010BD8842BE
:1038D0001FB5044601D0FFF771FE626862B901218D
:1038E0002046FFF7E6FD0123A2681380636023787A
:1038F00043F00103237010E02378D9070FD56FF34D
:103900000003A168237001230846ADF80E30009330
:103910000DF10E03FFF7A7FD606004B010BD511C50
:103920002046FFF7C6FD0123A168ADF80E300093D5
:1039300008460DF10E036268FFF76AFD6060D6E786
:103940002DE9F8434B6805460E46144603B12AB9E3
:1039500031462846BDE8F843FFF730BE02F10F01BB
:103960004FEA111803EB1111FFF7A3FDA96814F03A
:103970000F044FF0000ED6E9013208BF102408EB07
:10398000030702EB4302C4F1100407F1004C0CF1F1
:10399000FF3C01EB4C0C1946E14601BB6FF0010204
:1039A000C8F101082EFA04FE53434FEA48020CEB1B
:1039B000030052422CF803E000EB48084046A8F10F
:1039C000020824F02AFF17B138F817309BB12B7882
:1039D0006F60327862F300032B70BDE8F88332F831
:1039E000020D013940EA0E0020FA04FE29F802E92E
:1039F0004FEA004ED1E7013FE5E72DE9FF410D46D3
:103A000049680646144601B132B92946304604B029
:103A1000BDE8F041FFF7D2BDFFF74BFDB768D5F821
:103A2000088023466A6838464146FFF7D2FC33785F
:103A300070600246297861F300033370DB072AD5F2
:103A4000002320096968ADF80E30994201D0834205
:103A50000ED181421FD904F00F04012338F8101051
:103A600003FA04F4013C214211D0ADF80E3007E016
:103A700038F813504DB101238142ADF80E30EAD829
:103A800001235AB93B80736005E00133DDE7BDF8DF
:103A90000E30002BF4D104B0BDE8F081009339461C
:103AA0000DF10E033846FFF7B3FC7060F3E773B512
:103AB0000C4615460646D2E90132D1E90110FFF75E
:103AC0002CFD0028BEBF23462C461D462378616886
:103AD0002A785340DB071AD401313046FFF7E9FC5E
:103AE0006B68B0680093AB68D4E90121FFF790FCE4
:103AF000706023783278C3F3000300280CBF0023E2
:103B000003F0010363F30002327002B070BD30466F
:103B1000FFF7CFFC6B68B0680093AB68D4E9012174
:103B2000FFF7A1FCE4E7F7B50C4617460546D2E9D6
:103B30000132D1E90110FFF7F0FC0028BDBF234698
:103B40003C4601260026B8BF1F46237861683A78B4
:103B50005340DB0719D501312846FFF7AAFC7B68E3
:103B6000A8680093BB68D4E90121FFF751FC6860A5
:103B7000B8B1237803F001030EB183F001032A7872
:103B800063F300022A7003B0F0BD2846FFF791FCF2
:103B90007B68A8680093BB68D4E90121FFF763FC48
:103BA000E5E70346EBE72DE9F04F16464A680C4679
:103BB00085B0736805469A423EBF34460B461E46A2
:103BC00023786168DA0756BF3378012303F00103D5
:103BD0001944FFF76EFCB368726836780093A868E2
:103BE000D4E901E824788246A2EB0E02A8F102088B
:103BF00084EA060106F001060392CB07C6F100092C
:103C0000B44654BF04F0010B4FF0000B04F0010464
:103C10001FFA89F9CBF10001274689B2019161426F
:103C200089B20291714699B900EB4E01BBF1000FC8
:103C300003D00123023120F81E30FFF7BEFB3440D1
:103C40002B78686064F300032B7005B0BDE8F08F3B
:103C500038F8022F0139029B5A40039B17445A1827
:103C6000914229BF009B4A4633F8022B82EA09029F
:103C700028BF0093019B944407EA0C024FEA1C4CB6
:103C80003F0C5A401BFA82F24FEA124B2AF8022BE1
:103C9000C9E72DE9F04F16464A680C4685B07368AF
:103CA00005469A423EBF34460B461E46237861685D
:103CB000DB0756BF3378012303F001031944FFF7F4
:103CC000F8FBA868D4E901A72478A7F102085746B1
:103CD00014F0010F04F00104009018BF0122A44663
:103CE000D6E901B3367808BF06F0010206F00106F6
:103CF0005142C6F10009B64689B21FFA89F901910D
:103D0000614289B20291ABEB0A01039167B900EB02
:103D10004A013443FFF751FB2B78686064F30003DA
:103D20002B7005B0BDE8F08F38F802BF013F029953
:103D30008BEA010B0399DC4401EB070B01995F450A
:103D40002ABF33F802BBCB468BEA090BDE444CEAB0
:103D50000E0B4FEA1E4E4FEA1C4C8BEA010B0099EA
:103D600012FA8BF221F8022B120C0091CEE72DE90A
:103D7000F74F15464A680C4606466B684FF6FF7AC1
:103D80009A423EBF2C460B461D4623786168DB07EE
:103D900056BF2B78012303F001031944FFF789FB79
:103DA00023782A78D4F804E083EA0207DB43B0687A
:103DB000D24303F00103A96807F0010702F00102F2
:103DC0000093F446A3688046A3F102096B68A3EB55
:103DD0000E030193BCF1000F17D100EB4E011FB190
:103DE0000123023120F81E30FFF7E7FA70602378D4
:103DF0002A78C3F30003C2F300025340327863F31E
:103E00000002327003B0BDE8F08F39F802BF0CF148
:103E1000FF3C009BD3449B44019B63449C452ABFC9
:103E200031F8023B4FF6FF73534413448BEA03020D
:103E300017FA82F71A0C4FEA1B4328F8027B3F0C53
:103E40000093C7E74B682DE9F04F044685B00E4656
:103E500015460BB1536843B923786FF30003237001
:103E60000023636005B0BDE8F08F81422ED1FFF7DB
:103E700035FBA5420646074600D105466B6820463D
:103E800071681944FFF715FB22680021A068C2F38E
:103E90009D02520024F0C1FCB368D4F808E000226F
:103EA000D6F804900193F446AB680EEB490811462E
:103EB00002936B680393039B934231D0ACF10200F1
:103EC000DDF804B00023CDF8009018E0824204D160
:103ED000FFF704FB05460746D0E70027CEE730F89A
:103EE00002AF53443BF802AB1946029B33F8123041
:103EF00003FB0A130099038001391B0C0091009900
:103F00000029ECD14146881C13B10146A8F80030C5
:103F1000A1EB0E010CF1020C013280464910CAE7F8
:103F2000616038462A7833785340227863F3000280
:103F3000227005B0BDE8F04FFFF709BB4B6870B5C4
:103F40000546144613B11378DA0706D52B786FF3BC
:103F500000032B7000236B6070BD636823B90121DF
:103F6000BDE87040FFF7FFBA0846FFF7B7FA06460C
:103F70002046FFF7B3FA012104462846FFF7F3FA7B
:103F8000636883B1A3681B88DB0704D532462946E2
:103F90002846FFF757FFA168012362680846FFF72C
:103FA00018FA606038B93046FFF7D1FA2046BDE80C
:103FB0007040FFF7CCBA324631463046FFF742FF39
:103FC000DEE72DE9F04F0C4651688FB09046013185
:103FD00005460293FFF76DFAD8F804200021A8687F
:103FE00000260132520024F018FC2B786E60204627
:103FF0006FF300032B70D8F804100131FFF759FA62
:1040000041462046FFF7DAFA029BA768D4F80490ED
:1040100038464946D3E9013A00935246AB680393C8
:10402000009BFFF77AFA002835D10123039A6060DC
:1040300013806B6023786168C3F3000200290CBF12
:10404000002202F0010262F30003029A237098F842
:10405000003012785340DB0740F100816B682A780A
:10406000003B18BF012363F300022A70002900F00F
:10407000F5800BA84FF0FF31FFF7BFFA0BAA2946D6
:104080002846FFF714FD029A214620460FB0BDE8EE
:10409000F04FFFF70CBD01DA6E60CBE7009B03F138
:1040A0000042013A4FEA420E3AF81230180406F183
:1040B000010150D507EB490B002109F10100BC4675
:1040C0000BF1020327F8191060600193B3B2C3F13A
:1040D00010060496019EB44541D33AF812209A4046
:1040E0000492009A012A09D90AEB0E02C3F11001C9
:1040F00032F8022CCA40049911430491009AAAF1A3
:10410000020A801A039A686000F10040013802EB4D
:10411000400206920EF10202099262680592059928
:10412000009A8A4227D301F1004B0022C3F110000C
:104130000BF1FF3B07EB4B0B5F4576D96FF000416E
:104140006B682BB15A18039830F81220002A76D0E9
:104150006FF0004178E05B000E469BB2A6E7BCF82A
:10416000006006FA03F941EA09090499CE402CF8E7
:10417000029BB1B2AEE7BBF8001000203BF8022C66
:10418000864642EA01420499B2FBF1F20192099A91
:10419000ABEB02021646CDE9072AB3450FD8BBF8B0
:1041A0000010084400283BD1069AABF1020B01999C
:1041B00022F802190692059A013A6260ADE7089A60
:1041C000B6F8009032F8021F19FA80F99940089267
:1041D000019A41EA1E4E1FFA8EF151431FFA81FCEB
:1041E000090CA9EB0C0CC1EB204126F802CB01EB2A
:1041F0002C40D2E739F802CF0CFA03FC4CEA1E4EF1
:10420000B6F800C011FA8EF18C444FEA1C4126F832
:1042100002CBB345EED8019A0844013A0192C1E7B6
:104220000021D146079E8E46F3E7BBF8001041FA05
:1042300003F6814032432BF802298AB27CE7013B26
:104240006B607DE7013B63606368002B3FF4F2AE77
:104250005A1837F81220002AF4D0EBE60FB0BDE868
:10426000F08FF0B51F464B6885B004460D461646E4
:104270004BB11378DA0706D47B68012B0BD1BB68EE
:104280001B88012B07D123786FF3000323700023D1
:10429000636005B0F0BD01212046FFF764F9736843
:1042A000002BF6D02846FFF719F905463046FFF7F0
:1042B00015F9064601A8FFF774F97368B3B1B3683E
:1042C0001B88DB070AD52A4621462046FFF7BAFDA0
:1042D0003B462246214601A8FFF773FEB168012341
:1042E00072680846FFF775F8706058B901A8FFF7C3
:1042F0005DF92846FFF72BF9304605B0BDE8F040E0
:10430000FFF725B92A4629462846FFF79BFD3B467D
:104310002A46294601A8FFF754FECEE7D0E901213D
:10432000002301EB420210B5914205D30278D20777
:1043300048BF5B42184610BD32F8024D44EA0343C1
:10434000F2E730B5D0E90124002304EB42029442A5
:1043500006D302780120D20748BF5B420B6030BD14
:10436000B3F5004F04D232F8025D45EA0343EEE7AD
:104370000020F4E72DE9F0470546D1B19818002652
:104380004FF0010C03EB02093746D5E90184A4F193
:10439000020EB8F1000F0ED1B9B3C21A18462B782D
:1043A00013F0010FBDE8F04714BFFF21002124F0F6
:1043B00034BA1846E3E73EF8024F103744EA06469F
:1043C00095F800A0072F0AF0010A02DC08F1FF3877
:1043D000DFE7B4B2BAF1000F06D0E4435CFA84FC24
:1043E0001FFA8CF4CCF3072CE4B249B100F1FF3A88
:1043F00000F8014C53450BD0083F360A5046DFE722
:1044000082460AF8014BCA45F5E71A44121AC6E774
:10441000BDE8F08700000000D0E901329FED0C0BF1
:104420009FED0D6B02EB43039A4205D30378DB0744
:1044300048BFB1EE400B704733F8021D07EE101A6B
:10444000B8EEC77B00EE067BB0EE470BECE700BF93
:104450000000000000000000000000000000F0402C
:104460002DE9F84F446881468A4615461E469DF858
:1044700028B00B9F9CB982B1551E3A4615F8011F12
:10448000134639B930221A70002203F8012FD81BC5
:10449000BDE8F88F02F8011BF0E73B46F2E7640045
:1044A0002046FDF7F9FF80462246D9F8081024F08F
:1044B00075F93A463B4608EB0401A6F13A00A1F132
:1044C000020C0026E045644639D930361C46392EA8
:1044D00088BF361804F8016B4646B142B44638D856
:1044E000BBF1000F0AD00126A4EB020CBCF1030FB4
:1044F00002BF9C1C83F801B02246F6B14046FDF78E
:10450000F3FF5DB1284624F0BCF92A18611E13465A
:10451000AB4229D8954288BF0020044499F8003066
:10452000DB0744BF2D2304F8013B3B46621E9A4241
:104530001FD80023E01B2370AAE72346BFE7248887
:1045400044EA0646B6FBFAF40AFB14662CF8024964
:10455000B8E7BCF800C00236BCF1000FBDD0BBF11B
:10456000000FEAD00026BFE713F8016D01F8016FD4
:10457000CEE71978107803F8010B02F80119D6E795
:10458000D0E9023293423DBF5A1C826018784FF046
:10459000FF307047036810B5044613B14068FDF75B
:1045A000A3FF2046BDE81040FDF79EBFF8B50C46BE
:1045B0001F46164605461020FDF76EFF054B84602A
:1045C000C0E900743444C4606B60034B2860AB6086
:1045D000F8BD00BF814500609545006002690A2A68
:1045E00010B5044635D1836A013383620123A26981
:1045F000E36263696261226F2361002A31D0616ED8
:104600008A423BBF501CA16E0022206738BF8A5CE3
:10461000A2613BB9E26963662261226A2367626133
:10462000626AA261D4E905230D2A07D10A229342C6
:10463000626103D1D4E901039847A061A369013302
:1046400006D163695A1C03D00A2B1CBF0A23A3613D
:1046500010BDC36A092A04BF073323F007030133DF
:10466000C5E7D4E901039847A061DBE70369272B7D
:104670002BD0222B29D0A3F1620113291ED8174A6F
:104680000A41D2071AD44269272A1ED0222A1CD0F6
:10469000722B1CD1662A06D18269272A15D0222ABC
:1046A00013D0722B15D14369622B0CD18069272856
:1046B0000BD0A0F12203584258417047662BF0D12D
:1046C0004269722AE8D00020704701207047662BAB
:1046D000F6D0622BF7D14369722BE6E7EEFFF6FFC7
:1046E00070B504460D4600262069431C01D13046B2
:1046F00070BD0A2808D115B1636B002BF7D0204696
:104700000126FFF76BFFEFE7FEF7CCFD18B120465F
:10471000FFF764FFE8E72369232B08D12046FFF762
:104720005DFF23695A1CDFD00A2BF7D1DCE75C2B35
:10473000DDD163690A2BDAD12046FFF74FFFE6E7A8
:10474000436E2DE9F04F04462DED028B85B0A3B1E9
:10475000036F93B929216030FEF74EF92369E361B5
:1047600063692362A3696362A36E1A7822615A782F
:1047700062619B78A3610323236700212046616562
:10478000FFF7AEFFA36AE56A6364236BA564002BA1
:1047900001930ADA019F0823013784F84C3027631C
:1047A00005B0BDEC028BBDE8F08F05D0072384F87F
:1047B0004C30019B5F1EF2E7002834D0636B93BB43
:1047C00006236FF00042013D84F84C30D4E90F30ED
:1047D000991830F811108D42E2D019D9A16B8B4293
:1047E00007D308314900FDF772FEA36B206408333C
:1047F000A363D4E90F32591CE16322F81350236BF1
:1048000001332363CCE7013BE363236B013B236369
:10481000E36B991830F811108D42F4D3C0D0022305
:1048200084F84C30BCE725696A1C01D10023F7E706
:104830002046FFF71BFF8146002800F0B5810023CA
:1048400084F84C302369752B51D0622B07D16369F2
:10485000722B51D1C84602260D23002512E0722B7F
:1048600006D16369622BF5D0662B49D10523D7E7C2
:10487000662B49D16369722BF8D04D4601260C2373
:104880004FF0000894F84C20002A3FD184F84C30B7
:104890003EB12046FFF7A2FE022E02D12046FFF7CE
:1048A0009DFE23692046222B14BF4FF0270B4FF0AB
:1048B000220BFFF793FE23695B452AD163699B4571
:1048C00027D120464FF0030AFFF788FE2046FFF766
:1048D00085FE25B1B24904F16000FEF7D0F804F17D
:1048E0006003002704F1500608EE103A1EE001268E
:1048F00000250C23A846C5E701260D230025BFE7A8
:10490000C84601260C23A8E7019EF1E79A42BFD0D2
:1049100046E74FF0010ADCE7934533D1594630466C
:104920000137FEF770F82046FFF758FE2269511C48
:1049300000F02F81BAF1010F02D10A2A00F029817B
:104940005745E9D3394604F15000FEF7B2F801218A
:104950002046FFF7C5FE2046FFF788FE00287FF4BB
:1049600071AF1DE72046FFF739FE21697B291ED173
:104970003046FEF741F82046FFF730FE7B213046F7
:10498000FEF73AF821690DB17B29EBD05C2940F0A4
:10499000FB8020460291FFF721FE27690299B8F1BA
:1049A000000F38D03046FEF72EF83946CBE0676E60
:1049B000002221694B1C04D0C2B93A2901D07D29BB
:1049C00014D1D4E91921881810F8010C3D2807D119
:1049D000D21B39443046FDF75FFF636E013B6366CF
:1049E0002C2118EE100AFEF707F8C7E721F0200087
:1049F0005B280BD10132C9B218EE100A0292FDF702
:104A0000FBFF2046FFF7EAFD029AD2E75D2808BFC8
:104A100002F1FF32EFE7782F06D85B2F0BD8222F59
:104A200072D053D80A2F4FD0A7F13001072900F2D6
:104A3000A58003279BE0A7F15C021C2AF4D801A102
:104A400051F822F0094B0060294A0060294A0060B1
:104A5000294A0060294A0060B94A0060E54A0060BE
:104A6000294A0060294A0060294A0060F54A00602E
:104A7000294A0060294A0060294A0060294A0060EA
:104A8000294A0060294A0060294A0060ED4A006016
:104A9000294A0060294A0060294A0060E14A006012
:104AA000294A0060E94A0060F94A0060F14A006062
:104AB000294A0060594B0060072194F84C300C2BB8
:104AC0005ED13046FDF79FFF00272CE7552F13D00E
:104AD000AAD8272F18D04E2FA6D1324847F024FC51
:104AE0000D21EAE70821E8E70921E6E70A21E4E7E2
:104AF0000B21E2E70C21E0E794F84C200D2A05D1C8
:104B00005C213046FDF77FFF3946D6E7752F0CBF95
:104B100004270827002114E020460291FFF75EFDDC
:104B2000226910460392FEF7DBFB002800F04F815C
:104B30000299039A090110460291FEF711FC0299AD
:104B40000144013FE8D2481CBED0B1F5881FB4D360
:104B5000012384F84C30B7E70227DBE720460291B7
:104B6000FFF73CFD22690299303A02EBC10162690C
:104B7000303A072AE7D8013FF0D1E4E75C2111E79A
:104B8000FF29E5D80D2BE3D1C9B23046FDF734FF3C
:104B90009AE757453CBF032284F84C20D2E600BF79
:104BA000731105607C1105602846FEF785FB0546FC
:104BB00020B920695F2801D07F283ED9092304F15C
:104BC000500584F84C30217C2846FDF715FF20461F
:104BD000FFF704FD2069421C1BD128467E4FFDF7DC
:104BE000FCFE0025064657F8041B304623F050FE15
:104BF00000281CD10F35EDB2122D84F84C507FF4F3
:104C0000CFAD764BD3F84433002B0CBF11230F23C9
:104C100006E6FEF751FB0028D5D120695F28D2D0E7
:104C20007F28D0D8FEF752FB0028CCD1D5E7FFF67D
:104C3000B7AD0135242DD6D1B2E5FEF747FB68B3F9
:104C400021692E2935D10B2384F84C3004F150060C
:104C50000B273046FDF7D7FE2046FFF7BFFC206943
:104C6000431C3FF49DAD002D36D120F02003452B91
:104C700032D16521304684F84C70FDF7C4FE2046E1
:104C8000FFF7ACFC21692B2901D02D29E7D1304653
:104C9000FDF7B9FE2046FFF7A1FCE0E723692E2BC4
:104CA00004D16069FEF712FB0028C9D100264C4DE3
:104CB00032E00A23302984F84C30C7D1636943F0CD
:104CC0002003623B162B97BF464D01251D4105F081
:104CD000010585F00105B9E7FEF7EEFA28B1216973
:104CE0002E290DD184F84C70D1E72069FEF7EEFA39
:104CF0000028F4D123692E2BF1D05F2BCAD04FE5C9
:104D000021F020034A2BC2D1ECE7652F01D0632F9D
:104D100000D10135013601352F7817B12369BB4227
:104D2000F3D12046FFF75AFC0FB9012378E5212F74
:104D300007D123693D2BF8D12046FFF74FFC3A23DA
:104D40006EE52E2F0FD123692E2B02D163692E2BF6
:104D500001D05D2364E52046FFF740FC2046FFF7C5
:104D60003DFC0E235CE50335334615F8027C632FCA
:104D70001AD0652F18D01C4AD35C552B84F84C30C0
:104D80000ED0563BDBB2042B3FF60AAD012202FAED
:104D900003F313F0150F17D113F00A0F3FF400AD12
:104DA000636B01336363FBE415F8012C0136216961
:104DB000914207D12046FFF711FC3346652FDAD028
:104DC0000235D2E7632FFAE7636B013BEAE7012381
:104DD000014684F84C3070E63C1205600008002063
:104DE0002E110560FEDFBFFF0D1205607FB501AD1E
:104DF0000646742085E80E00FDF74EFB0446034688
:104E000095E8070043F8046B002583E807000123B9
:104E10006FF001021420C4E90A320A22C4E90C55D9
:104E2000C4E90E23FDF738FB2021206404F1500073
:104E3000FDF75BFD294604F16000FDF756FD236C8C
:104E400020461D802561C4E90555FFF7C7FB2046B4
:104E5000FFF7C4FB2046FFF7C1FB2046FFF770FCBD
:104E6000A36C2046012B1CBF072384F84C3004B0F0
:104E700070BD30B585B0054601AC2046FFF796FB06
:104E8000284694E80E00FFF7B1FF05B030BD30B5FD
:104E900085B00546014601AC20461AF04BFA28467B
:104EA000FDF742FC94E80E00FFF7A0FF05B030BD0F
:104EB00010B5044690B1C3684068984704F15000AB
:104EC000FDF742FD04F16000FDF73EFD206CFDF7AB
:104ED0000BFB2046BDE81040FDF706BB10BD0000EF
:104EE000F8B5054630200E461746FDF7EEFA072DB9
:104EF00004460570C66001D0012D0FD1B368C3F31D
:104F00000F13A38207F0AAFF042320612020278328
:104F1000E384FDF7C1FAE0622046F8BD014B5B5D1A
:104F2000EFE700BF5418056010B50446C06AFDF7EE
:104F3000DBFA2046BDE81040FDF7D6BA30B50022B6
:104F4000048D944202D80023184630BDC36A03EB97
:104F5000C2035D688D42F7D00132F2E770B50446B6
:104F60000D461646FFF7EAFFC0B9E38C228D9A4240
:104F700008D30633E06AD900FDF7A9FAE38CE062B2
:104F80000633E384238DE26A591C02EBC3002185BA
:104F900002F83360002345604370438070BD0346D0
:104FA00018465B68002BFBD1FFF7C8BFF8B5446813
:104FB0000E462CB9F8BD042BFCD105230370F9E78C
:104FC000254628466D68002DF4D077683946FFF7EE
:104FD000B5FF0028F5D00378043B022BEAD806255C
:104FE0003570002239462046FFF7B8FF0378002BC2
:104FF000E1D105706468F4E7036A1B8B012B1EBFC7
:10500000C368C918C1607047836A10B50446DB6F76
:10501000406A9847238B226A0133918C9BB2994254
:10502000238338BF938410BD038B013B10B50383EA
:105030000446836A406AD3F88430984720460121A9
:10504000BDE81040FFF7D8BFF7B51E4659B111F0C3
:10505000030511D14F68FCB294420DD13F0A01F112
:105060000804BD4201DB03B0F0BD54F8041B013558
:105070000190B0470198F4E7334603B0BDE8F04033
:1050800018472DE9F04F04460D4698462DED028B4A
:1050900008EE102A83B01BB1CB8A43F00803CB8201
:1050A00018EE103AEB83236ADA8A42F03002DA8291
:1050B0001B78002B4CD1A36A18EE102A2946606A8F
:1050C000D3F8B4604346B44603B0BDEC028BBDE8F0
:1050D000F04F6047DB6A03EBC60B13F83630053B35
:1050E000012B1DD84FF0000917E0EB6A03EBC90252
:1050F00013F83930062B0ED1DBF8041053689942AF
:1051000009D1A36A0AF1010ABBF802205B69606A4F
:105110001F460023B84709F101092B8D4B45E4DCFC
:105120000136236A1A8DB242D4DCD4E90903BAF1FC
:10513000000FC0D0CDF800805246D3F8B8402946C1
:1051400018EE103AA04703B0BDEC028BBDE8F08F1B
:105150000026B246E5E70000F8B50E4611461A46AD
:105160000023044685780769837003610E4BFFF7BF
:105170006BFF6368BBB9618A51B1228A42B9A36AE5
:10518000606AD3F8A0309847A36A606A5B6C98475E
:10519000238A3146628A2046FFF773FF003D27616C
:1051A00018BF0125A570F8BD315D0060024B9D223E
:1051B0008968FFF749BF00BF59790060024B6B2235
:1051C0008968FFF741BF00BF65760060836A0021F0
:1051D00010B50446D3F88830406A9847A36A606ADD
:1051E00010215B6B9847A36A606A0121D3F8CC3029
:1051F000984720460321BDE81040FFF7FDBE38B5B3
:10520000836A04460022406A9B6C9847A36A606ADE
:10521000D3F8C05000231A461946A8472046BDE8D7
:105220003840FFF7D3BF836A002289685B6D0909A4
:10523000406A1847836A89681B6C406A184710B532
:105240000446084611461A46FFF74AFE236A4360A1
:1052500000238360E3690BB9E06110BD1A469B68C7
:10526000002BFBD19060F8E770B5437805460C46FB
:10527000012B06D1036A0A4602211B8BFFF7DFFFD1
:105280002061A268284621694C23BDE87040FFF7E1
:1052900063BF70B51346427805460C46012A04D117
:1052A0000A460721FFF7CBFFA061A66928464623DF
:1052B000E2683146FFF750FFB08A70BD2DE9F04F2C
:1052C00085B005460C4600AF11B90121116015E00B
:1052D00011F003081BD10B79682B07D1CB681B0990
:1052E00013608C68002CF0D04FF0010804F00F031D
:1052F000022B0FD12109B8F1000FE7D0AB6A0022D1
:10530000686A1B6B98471437BD46BDE8F08F4FF0B5
:105310000008EBE7B8F1000F02D1A3681B09136086
:10532000666804F1080A360AD14606F1FF3B0AEB2B
:10533000860659F8040B0009FDF70CFAB1458344C1
:10534000F7D10BF1070323F00703ADEB030D6B4619
:1053500099465AF8040B07F10C013B600009FDF770
:1053600010FAFA68014648467A6023F017FA7A681C
:10537000B2453B68914418D159461846FDF736F9B5
:10538000AB6A014600221B6B686A9847B8F1000FB0
:10539000B9D00C34A642B6D054F8041B0022AB6A34
:1053A0000909686A5B6D9847F4E74FF02E0209F827
:1053B000012BCEE731B101F003038268134304BF30
:1053C0000B6883607047000038B543680D4604469B
:1053D00011464BB905480AF097FA29466060204605
:1053E000BDE83840FFF7E6BF38BD00BF8C38056028
:1053F0002DE9F04F0E460162002142708DB0044647
:10540000C16015463378072B05D0844A0DB0BDE83E
:10541000F04FFFF7D9BF012A05D0036B021D2946C3
:10542000C06A1B6898476378D6F80C90032B10D19C
:105430000BAA462109F10C0047F086F8236B0146C0
:105440000B9A9B68E06A984763687083002B40F072
:10545000B580D9F81010C1B101F00F06022E10D19D
:105460000B09752B3DD006D83E2B3CD05E2B0DD0C2
:105470006B4A2046CAE740F2BF429342F8D1032666
:1054800004E0684A2046FFF79FFF0226D9F814304F
:105490004FF0000A0AAA192109A8099347F054F805
:1054A0000690069B9A4520D16378012B15D9236B72
:1054B0003146E06A5B6898476378042B0DD1206A17
:1054C00005210396438BE26A02930023CDE9003362
:1054D000D2E90232006907F0DBFC6368002B6DD172
:1054E00014E00026D2E70126D0E70A9B4FEA8A0B98
:1054F00053F82A100B79082B02D10AF1010AD0E7E0
:10550000052B06D0484A2046FFF75EFF0DB0BDE8E8
:10551000F08FCB68002BF5D18B681A792C2AF1D14A
:105520009F6807F00F02022AECD1DB680593002B7D
:10553000E8D09807E6D11B79302BE3D1059B0BAA65
:10554000A4213F0903F1080046F0FEFF40F2DF33DB
:1055500080469F421BD1012805D10B9A136803F0A6
:105560000F03022B04D0314A0A9B53F80B10CAE7F1
:10557000E168012D01F10103E3601AD01268236B89
:105580001209E06ADB68984798B9294AECE740F2CB
:1055900031339F4216D1012803D10B9B1968CA07EA
:1055A00001D4244AE0E7012D03D04910E06A03F05A
:1055B00092FA6368002BA0D0DDF81490D9F800307F
:1055C000A360A3E740F26E339F421CD1012804D9A7
:1055D0000B9B196811F0010701D1174AC4E7012D8F
:1055E000E7D049100B9B53F82720D30701D4134A67
:1055F000BAE701375210E06A079103F073FAB84531
:105600000799EFD1D5E7012DD3D0236B0246394658
:10561000E06AD3F810B00B9BD847CAE75B18056067
:105620007F1805608C180560B4180560D7180560F0
:10563000F3180560031905601F190560441905601A
:10564000014AFFF7C1BE00BF661905600B79092B3F
:105650004FF6FF7370B508BF858A044618BFC58A28
:105660009D4202D1064AFFF7AFFE218B628BA36AEF
:105670008A1A606A29469B6FBDE87040184700BFD0
:105680008319056013B50446B9B101F00F03022B6D
:105690000FD10A091046019208F05AF80028019A21
:1056A00005DA074907480AF0C5F96060002002B032
:1056B00010BD054AFFF788FEF8E70846F7E700BF88
:1056C000A3190560B83905609318056010B4044645
:1056D0000B46006A6278012A03D15DF8044BFFF79C
:1056E0003DBCA16A0246606A14315DF8044B02F0C9
:1056F000E7BC000070B505460C4600292DD0CA074E
:1057000006D5836A49109B6B686ABDE870401847EC
:105710008B0716D004F00F040909022C0AD0062CBE
:105720000CD0062919D0836AC9B2406A5B6BBDE808
:1057300070401847BDE87040FFF7C8BF836ADB6B55
:10574000E2E7836A09681B69406A98472279034B3C
:105750002146284653F82230D7E770BD601C05600B
:105760002DE9F74F04460D4616461F46284646F0DB
:10577000AFFE20B1CEB9A36A3946DB6E4CE02846B5
:1057800046F03AFE08B186B1F5E7002D55D0AB07DB
:1057900053D16B684FEA132BDBB21E2B1BD1F6B132
:1057A000083505EB8B0B5D450DD103B0BDE8F08FDF
:1057B00043465AF8041B2046019209F10109FFF7FC
:1057C000CFFF019A19E03B46324655F8041B2046AC
:1057D000FFF7C6FFE7E71F2B23D1002EE0D0D4F858
:1057E0000C8005F1080A4FF0000986F0010208F16B
:1057F0000103E3600BF1FF330093009B4B45D7DCC3
:105800000BF101013B463246204655F82110FFF7C7
:10581000A7FFA36A4146DB6A606A03B0BDE8F04FA8
:105820001847202B03D1AD6886F001069EE72D2B8B
:1058300003D1AB68002BA6D19CE729462046FFF791
:1058400059FFA36A3A4631461B6F606A03B0BDE850
:10585000F04F1847026A38B5127804460B46072AFB
:1058600006D0022A04D0154ABDE83840FFF7ACBD87
:105870009D6885B9A36A1021606A5B6B9847A36A2B
:105880000021606AD3F8CC30984720460121BDE85A
:105890003840FFF7B1BBAB070BD12B79AF2B08D149
:1058A0002046A968FFF726FF2046BDE83840FFF7ED
:1058B0008DBC29462046FFF71DFFE0E7B5190560BE
:1058C00070B5437804461546CE68012B06D1036AAD
:1058D0000A4629461B8BFFF7B2FC706100237169F1
:1058E00020461A46FFF7CDFBF1682046FFF702FF7E
:1058F000062D05D1A36A0021606AD3F88830984745
:10590000A36A0121606AD3F8BC500023AC461A4652
:10591000BDE87040604738B505460C46C968FFF7DA
:10592000E9FEA1682846BDE83840FFF7E3BE0B79E1
:10593000342B70B504460D4610D18968FFF7DAFEA6
:10594000ED68AD6885B9A36A1021606A5B6B984702
:10595000A36A04220221D3F8A0301AE0836A10213E
:10596000406A5B6B9847ECE7AB071FD12B799A2B0A
:1059700013D1A36A1021606A5B6B9847A96800295C
:10598000E6D02046FFF7B6FEA36A04220321D3F82F
:10599000A030606ABDE8704018479B2B06D1A9680B
:1059A0002046FFF7A7FEEB689968E8E729462046FE
:1059B000FFF7A0FECCE710B504468968FFF79AFE12
:1059C0000021A36A606A1B6DBDE810401847000003
:1059D0002DE9F7438D68044616465DB9002A75D057
:1059E000836A02222946D3F8A030606A03B0BDE87A
:1059F000F043184715F0030740F08A802B79372BC6
:105A000013D132B1836A02220121406AD3F8A03057
:105A1000984720462946FFF76DFEA36A606AD3F8CF
:105A2000A43003B0BDE8F04318479F2B70D1EB685A
:105A30001A79A12A5AD1A22101AA03F1080046F03D
:105A400083FDA968804621B38B0722D10B79372BC0
:105A50001FD136B1A36A411C0222606AD3F8A0307C
:105A60009847A9682046FFF745FEA36A4FF0010951
:105A7000606AD3F8A4309847474510D1B9F1000FB8
:105A800024D1A36A0322791C606AD3F8A030984716
:105A90001CE020464FF00009FFF72CFEECE7019BCD
:105AA00053F82710A9B18E0713D10E79A6F137004C
:105AB000464246412046FFF71DFEB9F1000F11D0C6
:105AC0004EB9184A29462046FFF77EFC03B0BDE8D0
:105AD000F0830026EEE7A36A606AD3F8A430984703
:105AE0000137C9E7002EFBD00F4AEBE7AB685BB18B
:105AF0009A0709D11B79372B06D10422294603B016
:105B0000BDE8F043FFF7DCBE052229462046F6E754
:105B100029462046FFF7EEFDA36A03220121D3F8B0
:105B2000A03062E7CE190560EB1905600122FFF78E
:105B30004FBF70B50D46C9680446FFF7DBFDA96885
:105B4000A36AC1F30711606AD3F89830342916BFED
:105B500040390221C9B2BDE870401847F8B54F6816
:105B60000C46002689683F0A0C340546FFF7C2FD43
:105B700002360834B74200DCF8BD54F8041C28464D
:105B8000FFF7B8FD54F8081CAB6A0909686AD3F836
:105B90009C302539C9B29847EAE72DE9F0414E68B3
:105BA0000C4601278968A6F10D080C34360A054613
:105BB0005FFA88F8FFF79EFDB74201DBBDE8F08190
:105BC00054F8041B2846FFF795FDAB6A4146686A06
:105BD000D3F89C3001379847EEE72DE9F0414E6845
:105BE0000D4689680446360A0127FFF783FD032E18
:105BF00089BFD4F80C804FF0000808F10103E3607E
:105C00007B1C9E4222DC032E55DDE568606A6B1C1E
:105C10002946E360A36ADB6E9847A36A4146606A3F
:105C2000DB6A9847A36A0121606ADB689847A36A28
:105C3000606A5B6E9847A36A606A1B6E9847A36AA6
:105C40002946606ADB6ABDE8F041184702372969D6
:105C50002046FFF74FFDB74207DAA36A606A9B6DE3
:105C60009847A36A606A9B6E9847EB68A26A03F044
:105C70000F01606AD2F89C200A2911D1C3F30713DF
:105C8000262B16BF353B0621D9B29047B74205DA1D
:105C9000A36A42460021606A5B6F98470835AFE708
:105CA0001979852901D13221EFE79B680BB90721CA
:105CB000EBE73321E9E7BDE8F08110B504468968D8
:105CC000FFF718FD0321A36A606AD3F89830BDE896
:105CD000104018472DE9F0474E680446D0F80C8074
:105CE00001F108055FFA86F90027360AA9F11E03BB
:105CF000D3F1000949EB030908F10103C360B7427E
:105D000006DBA36A4146606ADB6ABDE8F0471847D4
:105D1000013755F8041B2046FFF7ECFCB742F0DAD8
:105D2000A36A42464946606A5B6F9847E7E700000E
:105D300001F00F03022B70B504460FD00B79492BED
:105D400001D04F2B02D10123A37070BD4A2BFCD090
:105D5000502BFAD0482B0DD10D696DB9A378002BCB
:105D6000F3D1638A002BF0D020461D4ABDE8704075
:105D7000FFF72ABBCD68F0E7A3788E683BB3238A90
:105D800001339BB2012B23820ED1618AD4E909032E
:105D9000D1B1D3F8A03000229847A36A0222002193
:105DA000606AD3F8A030984729462046FFF7A2FC46
:105DB000A36A606A3109DB6B9847A36A606AD3F80B
:105DC000A430BDE8704018475B6C9847E5E7638AEC
:105DD0002946204601336382BDE87040FFF78ABC44
:105DE0000A1A05602DE9F041C5680446D1F80C8017
:105DF0000E46AB1C0022D8F808106F1CC3602B465F
:105E0000FFF7AEFCB1682046FFF774FCA36A394681
:105E1000606ADB6E9847A36A2946606ADB6A984726
:105E2000A36A606A4FF0FF31DB689847D8F80C101E
:105E30002046FFF75FFCA36A3946606ADB6ABDE86B
:105E4000F04118472DE9F047C6680446D0F814A081
:105E50000D46B31C06F10108B0F81A90C360038B1D
:105E60008682A0F816804383886846F031FBF8B933
:105E7000E768A8687B1CE36046F0BEFA20B9A36A15
:105E80004146606ADB6E9847A36A3946606ADB6AFE
:105E90009847E9682046FFF72DFCA36A4146606AEF
:105EA000DB6A98473B460122A9682046FFF758FC69
:105EB00029692046C4F814A0A4F81A90FFF71AFC28
:105EC000A36A3146606ADB6ABDE8F04718472DE9EE
:105ED000F347C66804460D46731CC360886846F0E5
:105EE000F7FA024610BBE7682046A9687B1CE3600E
:105EF0003B46FFF735FC2046E968FFF7FBFBA86847
:105F000046F07AFA00BB2B690BB96B694BB1A36AF7
:105F1000606A9B68984720B9A36A3146606ADB6E65
:105F20009847A36A3946606ADB6A984701AA7121DB
:105F300005F11000002746F007FB81464F450BD1C5
:105F400069692046FFF7D6FBA36A3146606ADB6ABF
:105F5000984702B0BDE8F087019B53F82780D8F836
:105F6000080046F0B5FA024620BBD4F80CA0204643
:105F7000D8F808100AF10103E3605346FFF7F0FB7D
:105F80002046D8F80C10FFF7B5FBD8F8080046F00B
:105F900033FA0028D8D1A36A606A9B68984720B971
:105FA000A36A3146606ADB6E9847A36A5146606A0D
:105FB000DB6A98470137C1E770B58D6804463DB983
:105FC000836A2946D3F8C830606ABDE87040184734
:105FD000AB070ED12B795E2B0BD1A968FFF78AFB9B
:105FE000E9682046FFF786FBA36A0221D3F8C83090
:105FF000EAE729462046FFF77DFBA36A0121D3F893
:10600000C830E1E710B504468968FFF773FBA36A5F
:10601000606A1B6EBDE8104018472DE9F0414E68DC
:1060200001F108040546360A04EB8607BC4208D194
:10603000AB6A3146686A0022D3F8A030BDE8F0416F
:10604000184754F8041B2846FFF754FBEEE789680D
:10605000034610B441B9826A406AD2F8A0400A46A9
:1060600023465DF8044B18474A68120A022A0BD1EE
:10607000CA684AB1940707D11279AC2A04D1062222
:106080005DF8044BFFF71CBC18465DF8044BFFF7A6
:10609000C4BF4B682DE9F04105460E461F0A01F1C9
:1060A00008080024BC4201DBBDE8F08158F8041B5D
:1060B0002846FFF71FFB6B683BB10234284656F8B1
:1060C0002410BDE8F041FFF775B90134EAE710B5D7
:1060D0000446FFF7DEFF2221A36A606AD3F89C30F2
:1060E000BDE81040184770B58D68044645B9836A0D
:1060F00001222946D3F8A030606ABDE870401847F5
:10610000A9071ED16B68DAB2922A1AD11B0A022B98
:106110000CD1EB6853B19A0708D11B79AC2B05D190
:1061200029460322BDE87040FFF7CABB2946204636
:10613000FFF7AFFF6968A36A0122090AD3F8A0300C
:10614000DAE729462046FFF7D5FAA36A0122D3F8F9
:10615000A0301146D0E70000184B2DE9F041D3F8EC
:10616000447304460D463FBBC66801228968731C10
:10617000C3603346FFF7F4FAA36A1F2101229B692B
:10618000606A9847E96851B12046FFF7B3FAA36AFD
:106190003A460121D3F8BC503B46606AA847A36A3F
:1061A0000121606AD3F8C8309847A36A3146606A13
:1061B000DB6ABDE8F0411847BDE8F0810008002027
:1061C000026A10B512780446072A04D00A4ABDE8CC
:1061D0001040FFF7F9B8896859B9836A1021406AFD
:1061E0005B6B9847A36A606AD3F8C430BDE810407F
:1061F0001847FFF77FFAF5E7381A056010B4026A0E
:10620000044640780B46012804D110465DF8044B43
:1062100001F047BFA16A606A1C315DF8044B01F0D0
:106220004FBF00008B072DE9F14F04460D4616467F
:1062300011D001F00F03022B16D1D7074FEA11112D
:1062400004D401B0BDE8F04FFFF7D8BF01B0BDE8FE
:10625000F04FFFF73BBA4968CBB22D2B7BD00BD860
:10626000062B0DD02C2B12D04E4A2946204601B0C9
:10627000BDE8F04FFFF7A8B82E2B7FD09D2BF3D1B0
:10628000002EF1D105F10802090A20467BE0022A1E
:1062900002D0A968FFF72EFAEF68002FE4D017F0BC
:1062A0000309E1D17B68B846DAB28E2A0DD1022EFD
:1062B0004FEA132805D007F1080A08F1FF3BD9453A
:1062C00011DB08F1010857F8288098F80430312BC9
:1062D00024D1022E0FD1A36A606A9B6E9847A36AED
:1062E0001B6D012115E05AF8041B204609F1010934
:1062F000FFF700FAE3E7D8F808102046FFF7FAF9AD
:10630000012EA36AECD1DB6D606A9847A36A002175
:106310001B6D606A01B0BDE8F04F1847322BA3D166
:10632000012ED4E909030CD19B6D9847A36AD8F8D4
:10633000081000225B6D0909606A01B0BDE8F04FEA
:106340001847022E01D15B6E9847A36A0122D8F844
:1063500008105B6DEFE7AA68002A85D0002E83D174
:106360005168090A022907D1D3682BB1980703D1D4
:106370001B79AC2B3FF478AF083286E7002A7FF414
:1063800073AFA96821B901B0BDE8F04F00F074B84F
:106390008E0703D10B790A46922BE1D005F1080252
:1063A000012172E7521A05602DE9F047C7681E46C1
:1063B00004460D46BB1C3946904607F10109C360EF
:1063C000836A406ADB6A9847A36A4946606AD3F8E1
:1063D0008C309847A96800222046FFF723FF2D69DB
:1063E000002D2DD141462046FFF784F9236A197804
:1063F000A36A06291DD1D3F8CC302946606A984794
:1064000020460121FEF7F8FDA36A606A1B6E9847DB
:10641000A36A3946606ADB6E9847A36A606A494698
:10642000DB6A9847A36A606AD3F89030BDE8F0470A
:106430001847B200D3F8A830606A05329847E7E7FA
:106440002B79AD2B07D1A9683B4600222046FFF7E8
:1064500087F9ED68C4E7E9682046FFF74BF9A36ABE
:10646000606A0121D3F888309847731C4246294658
:106470002046FFF799FFCBE72DE9F84304460D4688
:10648000904601F1FF3900264FF0FF37B9F1FF3F89
:106490000CD17B1C05D1A36A2946606AD3F8AC30C5
:1064A00098470026AE421DD1BDE8F88358F8261063
:1064B00071B18A070CD10B79222B09D101370BD18D
:1064C000A36A37464A463146D3F8B030606A9847E7
:1064D000013609F1FF39D9E72046084ABDE8F843FB
:1064E000FEF772BF58F82610B7424FF00002204660
:1064F00008BF89680136FFF795FED3E76D1A05607E
:106500002DE9F7430446904699460F4629B91946A6
:1065100003B0BDE8F043FFF7EDB8C668731CC36075
:1065200015684DB315F0030226D12B797B2B23D1AF
:10653000A9680192FFF7DEF8019A31462046FEF77E
:1065400063FD019AE9682046FFF76CFE4B4608F1AF
:106550000402791E2046FFF7D3FFA36A3146606A22
:10656000D3F88030984703212046FEF745FD03B05D
:10657000BDE8F043FEF758BD29462046FFF7BAF8BC
:10658000204600223146FEF73FFDA36A606A1B6E7B
:106590009847DBE737B50C46054601AA7A2104F196
:1065A000080045F0D1FFE3680146019A2846FFF74D
:1065B000A7FF03B030BDD1E902232DE9F04F02F06F
:1065C0000F0204460E46022A2DED028B87B040F0E2
:1065D0000481002B00F00181980740F0FE801A79B9
:1065E0002C2A40F0FA809A6802F00F01022940F04C
:1065F000F48012097C2A40F0F080DB681A79302A96
:1066000040F0EB809B6805AAA42104A8049345F000
:106610009BFF431E022B00F2E080059B01281A68B5
:1066200000F0CD80022800F02E819D68E90740F13E
:10663000D480690800F0D180D3F804A032B1930768
:1066400004D11179A639022940F2C780BAF1000FAE
:1066500008D01AF0030F05D19AF80410A6390229C0
:1066600040F2BB80B3681AF0010B776908EE103A6C
:106670003369218B08EE903A6369E6680293638B75
:1066800006F10208618306F10401019306F101039A
:1066900006F10309A6820393E382E16005D1514626
:1066A00020460392FFF726F8039A11462046FFF78B
:1066B00021F8A26A4946606AD26E9047A26A4146B2
:1066C000606AD26A9047A26A606A926D904700221F
:1066D00018EE101A2046FFF7A5FD18EE901A204676
:1066E000FFF708F8A26A711C606AD26A90472946CF
:1066F0002046FEF7FFFFA26A0E21606AD2F89C20B6
:106700009047A26A4946606AD26A9047A26ABBF182
:10671000000F58D1D36D606A9847A36A606A5B6EB8
:106720009847002DA36A606AACBF00210121D3F80D
:106730009C309847A36A424601211B6F606A9847C4
:10674000029B6361019B6383002F44D0A36A606A4C
:106750001B6E9847BBF1000F03D1A36A606A1B6EE2
:10676000984739462046FEF7C5FFE568606A6B1C0E
:106770002946E360A36ADB6E98478BF00101A36AA8
:106780000131606ADB689847A36A3146606ADB6A58
:106790009847A36A606A1B6E9847BBF1000F03D14C
:1067A000A36A606A1B6E984727B1A36A2946606A8C
:1067B000DB6A984707B0BDEC028BBDE8F08F9246CC
:1067C0000325024642E7606A926D90475146204693
:1067D000FEF790FFA5E73D46D6E7E5682046238B08
:1067E000B4F81A906F1C63836FEA4543D4F814A081
:1067F00005F102086FEA5343F168E782A382EB1CBC
:10680000E360FEF777FFA36A0121606AD3F888305E
:106810009847A36A3946606ADB6A9847A36A41468B
:10682000606AD3F88C3098470022B1682046FFF7A1
:10683000F9FC20463169FEF75DFFA36A606A9B6838
:10684000984720B9A36A3946606ADB6E9847A36A05
:106850004146606ADB6A9847A36A606AD3F8903061
:10686000984771692046C4F814A0A4F81A90FEF75E
:1068700041FFA36A2946606ADB6A07B0BDEC028B60
:10688000BDE8F04F18470325D6E62DE9F74F04463B
:1068900090460F4629B9194603B0BDE8F04FFEF700
:1068A00029BFC668321D06F1010A06F1020B06F186
:1068B0000309C260D8F80050002D00F0F28015F0F6
:1068C000030240F0EE8029797B2940F0EA80A96834
:1068D000CDE90032FEF70EFFA16A606A896D884734
:1068E000A8212046FEF78BFC019AE9682046FFF7B5
:1068F00099FC009B3146204602220093FEF784FB60
:10690000A26A0321606AD268904708F10402009BE2
:10691000791E2046FFF7B9FFA36A606A6FF0020193
:10692000DB689847A36A1021606A5B6B9847A36A8B
:10693000606A5B6E9847A36A5146606ADB6E98474F
:10694000A36A3146606ADB6A9847A36A606A9B6DF6
:106950009847A36A0122606A9B6921219847A36A2C
:10696000606A0821D3F89C309847A36A5A460021F0
:10697000606A1B6F9847A36A606A9B6D9847A36A19
:10698000606A9B6E9847A36A606A5B6E9847A36AC9
:106990000022A921606A9B6C9847A36A606A9B6E7B
:1069A0009847A36A606A9B6E9847A36A606A9B6D6A
:1069B0009847A36A00220A21606A5B6D9847A36A20
:1069C000606A5B6E9847A36A606A10215B6B9847A8
:1069D000A36A0321606AD3F8C05000231A46A8476F
:1069E0002046FEF7F3FBA36A4A460021606A1B6F4C
:1069F0009847A36A606A1B6E9847A36A606A102171
:106A00005B6B9847A36A4946606ADB6E9847A36A46
:106A1000606A0221DB689847A36A5946606ADB6AAC
:106A20009847A36A606A9B6E9847A36A606A9B6EE8
:106A30009847A36A5146606ADB6A9847A36A0022B6
:106A4000606A9B6CA9219847A36A1021606A5B6BFE
:106A50009847A36A606A9B6D9847A36A606A9B6DBA
:106A60009847A36A0321606AD3F8C05000231A46EE
:106A7000A8472046FEF7AAFBA36A606A1B6E9847E8
:106A8000A36A606A4FF0FF31DB689847A36A606AC7
:106A90004946DB6A9847204603B0BDE8F04FFEF751
:106AA000C3BA294620460093FEF724FEA26A606A14
:106AB000926D90472046A821FEF7A1FBA26A606A6A
:106AC000126E904715E72DE9F041CD6804460E4659
:106AD00035BB0378BBB1036A1D78A5B9CF21FEF79A
:106AE000F5FDB1682046FEF705FEA36A2A4601219E
:106AF000D3F8BC602B46606AB047A36A606A1B6E1D
:106B0000BDE8F0411847B1688A0700F0A18001F0A4
:106B10000F03022B40F0A3802046FEF7EBFDECE7CD
:106B2000AB0740F08F806B68DAB25B2A13D1ED6857
:106B3000002D4CD1006A0378072B40F090808968C3
:106B400001F00F03022B40F08A800422BDE8F041DF
:106B5000D140FEF703BA562A13D101228968FFF704
:106B600061FBE9682046FEF7C5FDA968A36A09092B
:106B7000606AD3F89C303F39C9B298470222B168A5
:106B80005BE0572A23D11B0A5F1E013355F82310FF
:106B9000FEF7B0FD002F03DDA36A606A9B6D984786
:106BA000B1680835002600222046FFF73BFBBE42B5
:106BB00055DA0136BE4203DAA36A606A9B6D9847D4
:106BC000002255F8041B2046FFF72CFBEFE7AF0728
:106BD00038D16B68DAB2062A34D1B768002F31D0C9
:106BE000B8072FD17A68D1B206292BD11B0AB3EB93
:106BF000122F27D1022B25D1BB6823B1990702D1CF
:106C00001B79222B1ED0FB6823B19A0702D11B7976
:106C1000222B17D0A9682046FEF76CFDE9682046B4
:106C2000FEF768FDA36A606A5B6E98470022B96848
:106C30002046FFF7F7FA0022F9682046BDE8F04148
:106C4000FFF7F0BA29462046FEF754FD002296E7EA
:106C500000293FF461AF0B793A2B7FF45DAFBDE8BB
:106C6000F08100000023032A2DE9F04104460D467F
:106C7000164642700162C36080F8342002D1C08E93
:106C800028BBA0634FF00008A36A3146606A1B6806
:106C90002A46A4F83680984706212046FEF7ACF92C
:106CA0006778EE68012F04BFA5F82280A5F824803C
:106CB0008EB1B2070FD133793F2B0CD1B168FEF7FB
:106CC00019FDA36A606AD3F8C430984730E08000A9
:106CD000FBF7FBFBD5E72B784BB931462046FEF797
:106CE00009FDA36A5B6B1021606A9847E9E7072BEF
:106CF00024D1012F12D1002346222046A3705E4BDF
:106D0000F168FEF7A1F92B8B032B07D131692046DF
:106D1000FEF7B8FCEB8A43EA8010E88220467169EE
:106D2000FEF7E8FCA36A606A9B6898470028D8D001
:106D3000A36A606A5B68BDE8F0411847022B1BD16B
:106D4000A36A31681B69606A98476378012B07D191
:106D500000234C222046A370484BB168FEF774F91B
:106D6000F1682046FEF7C6FCEB8ADB07A9D5A36ACB
:106D7000606A1B6E9847B4E7033B032B4FD8012F83
:106D8000D6F80C8005D104223946206AFEF7E6F8D1
:106D90006F83A36A31681B69606A98472B78032B5D
:106DA00024D1A36A0122D3F8A0300021606A984759
:106DB0002B78062B28D1A36A606A5B6C9847012167
:106DC0002046FEF783FCA36A606A5B6C9847A36A5F
:106DD000606A5B6C98470023B26841462046FFF723
:106DE000E3FA2B78062B7FF46CAF7AE7042B04D1FF
:106DF000A36A0222D3F8A030D7E7052BD8D1A36A23
:106E00000322D3F8A030D0E720460121FEF75EFC34
:106E1000A36A0121606AD3F888309847DBE7012F25
:106E200004D104220A212846FEF798F817212046AB
:106E3000FEF74CFC16212046FFF7E0F9B168A36A83
:106E40000909606ADB6B98471A212046FFF7D6F9DB
:106E500031692046FEF74EFC0A212846FEF76EF8FF
:106E60000378042BA36A3FF43DAF5D690A21428891
:106E70000023606AA84724E7F17B0060F97B00608B
:106E800001F00F03022B70B504460D46164602D0E2
:106E90000B4AFEF799FA31462046FEF72BFCA36A0F
:106EA000606A9B6D9847266A290920463378033B20
:106EB000032B9CBF73682362FFF7A0F9266270BDA5
:106EC000521A05602DE9F04F002787B04FF0010BF3
:106ED0000446B9463E46B84603A81D46CDE9022100
:106EE00005AAA42145F030FB0190019B9F4211D1DE
:106EF00026B1A36A4946606A9B6B9847029AD4E917
:106F00000903002A73D0D3F8C040334642462946CD
:106F1000A04713E0059B53F827A0BAF1000F5BD000
:106F20001AF0030F58D19AF80420A62A19D1B007F5
:106F300007D5304A51462046FEF746FA07B0BDE86D
:106F4000F08F1D2F01D92C4AF4E70BFA07F246F017
:106F50000106DAF8081049EA02092046FEF7CAFBE2
:106F600020E0A72A0ED1A26A46F00206606A526C9F
:106F70009047DAF8081008F101082046FEF7BAFB3E
:106F80000137B2E7A82A27D1DAF80C2072B19107AD
:106F90000CD11179AA2907D192682046DAF8081095
:106FA000FFF76EFF0135EBE7AC290FD0DAF80810D8
:106FB00001F00F02022A01D0104ABBE7A26A0909B8
:106FC000606AD26B9047DAF80C10D4E7062251467B
:106FD0002046FEF775FCE5E7B30701D5084AA9E7A7
:106FE000B8F1000F01D0074AA4E75146B5E7D3F83E
:106FF000BC408AE7871A0560961A0560A41A0560E6
:10700000C51A0560DD1A056070B50D464178044665
:107010001346012903D12A46FEF711F96861A36AD4
:10702000606ADB6C98476E690023204631461A4639
:10703000FEF727F8A36AB18ADB6B606A9847E968B4
:1070400029B18B0703D10B79A32B08BF0021204660
:1070500002230022FFF736FFB08A70BD0023896843
:107060001A46FFF72FBF00002DE9F8430C46896848
:107070000546FEF73FFBE668002E57D07768296A81
:10708000FBB209788E2BA36819BF04F10C06012707
:107090003F0A0836072903F00F024BD1022A47D1D5
:1070A0001A099A2A48D132681179302944D1926854
:1070B000002A41D10A212846FEF708FB2A6AD36A32
:1070C000128D32B9316828463F4ABDE8F843FEF7D1
:1070D0007BB95978C9070FD559682846FEF7F6FAE3
:1070E000022FAB6A0BD8D3F8BC4000230221686A98
:1070F0001A46A047012417E0013A0833E1E7726815
:1071000011793229EFD1B46821793029EBD1916816
:1071100001229B6C0909686A9847A168032400232F
:1071200001222846FFF7CEFEA74225D8BDE8F88306
:107130000024F9E7022AFBD11B09B3F52C7FF7D114
:1071400033681A79302AF3D19B68002BF0D013F002
:107150000304EDD11B792F2BE6D1AB6A22462146E1
:10716000686AD3F8BC802346C04733682246284665
:107170009968FEF72DFCBDE704F10108A30056F85D
:107180002410B8451AD20A79322A17D13344D3F8D9
:10719000049099F80430302B10D189680022AB6A32
:1071A0000909686A9B6C984700230122D9F80810E6
:1071B0002846FFF787FE08F10104B5E72846A046F8
:1071C000FEF798FAF7E700BFFE1A0560026A0B4661
:1071D00010B512780446072A06D0022A04D0074ABE
:1071E000BDE81040FEF7F0B820461946FFF73CFF17
:1071F0002046BDE81040FDF7E9BF00BF161B056043
:10720000D1E90212FFF73CBE036A10B504461A8B9F
:10721000FFF7FAFE01462046BDE81040FEF7EEBF3C
:10722000036A10B504461A8BFEF733F80146204670
:10723000BDE81040FEF7E2BF2DE9F04F8D6887B042
:1072400004462B79032B0AD12946FFF7E9FFAA69E7
:10725000D38A43F00103D38207B0BDE8F08F026AFE
:10726000D28AD20706D4634A294607B0BDE8F04F58
:10727000FEF7AAB8162B40F0AF80C668E968331D48
:1072800006F1010A4FEA111B06F10208C36006F17C
:107290000309FEF72FFAA36A606A00229B6CAA21F9
:1072A0009847A36A606AD3F8C07000231A4619464B
:1072B000B84759462046FEF7A1FFE7686369BA1C44
:1072C000606A0293E260638B228B01937B1C628372
:1072D000A26A1946E382D26AA782039390470122E9
:1072E00051462046FDF790FE59462046FEF7EEF93E
:1072F0002046AC21FDF783FFA96820460022FEF757
:1073000091FFA26A4146606AD2F894B00022D84741
:10731000A26A5146606AD26A9047A26A606AD2F84D
:10732000D0209047A26A606A926D9047A26A606A14
:107330004FF43871D2F818A00122D047A26A606ACF
:107340000821D2F89C209047A26A0021606AD2F8F6
:1073500070A04A46D047A26A606A126E9047A26A3D
:107360003146606AD2F894A00122D047A26A494609
:10737000606AD26A9047A26A0121606AD268904727
:107380002046FDF751FEA26A606AD2F8D4209047E9
:10739000A26A4146606AD26A904729692046FEF790
:1073A000A9F9039BA26A1946606AD26E9047029BB4
:1073B0003146606A6361019B6383A36ADB6A984715
:1073C00069692046FEF796F9A36A3946606ADB6A66
:1073D00007B0BDE8F04F184705AA7A2105F108006B
:1073E00045F0B2F8EB680146059A2046FFF74DFAE2
:1073F00032E700BF2F1B05602DE9F04F85B0044632
:107400000026DFF820A1019102AA019B4221B1468A
:1074100003F1080045F098F8236A83461D8B5E450A
:107420000AD1019BD9680B79032B51D12A462046FA
:10743000FDF72FFF054659E0029B03AA6C2153F884
:10744000263003F10800009345F07EF8039B0746C1
:1074500019680A09732A0DD04FF001082046FEF77B
:1074600049F9B84528D3009BD96859B12046FEF7A1
:1074700041F907E0022807D052462046FDF7A4FF55
:1074800009F101090136CAE759680B09412B0DD0F2
:1074900040F21C4293420BD040F2DE42934209D0AC
:1074A00040F239329342E7D10425E9E70125E7E7C5
:1074B0000546E5E70325E3E7039B0022606A53F8EE
:1074C000281008F10108A36A09095B6D9847C8E70D
:1074D000442B17D18E682A4620463146FDF7D9FE47
:1074E000B2690546D38A43F00103D3820027ABEB90
:1074F0000909B9450BD829462046FEF77FFE05B09D
:10750000BDE8F08F2A462046FFF77EFD92E7A36A8A
:107510000121606A0137D3F8BC6000231A46B047E6
:10752000E7E700BF551B0560F0B58D6885B00446E0
:107530000E4605F00F030A2B07D0002D31D015F0B1
:1075400003012ED12B79652B1ED10295002503AAAC
:10755000652102A844F0F8FF039B002140F2DA52B3
:1075600003EB8000834215D1F26840F22A439A422D
:1075700037D1236A1F78B7B1394A3146204605B062
:10758000BDE8F040FDF720BF622BEDD1AB68029360
:10759000ED68DCE753F8047B97420CBF01310331FF
:1075A000E0E70021E0E7A36A606A9B6B9847A36A63
:1075B000606A0521DB6B9847A36A3A46606AD3F894
:1075C000A0300121984703AA29462046FDF776FE00
:1075D000A36A022239461B6B606A05B0BDE8F04021
:1075E0001847A36A0027606A9B6B984706F10C0056
:1075F00002AA6A2144F0A8FF0646B742D4E909036B
:1076000012D1D3F8A03000223146984729460025F0
:1076100003AA2046FDF752FEB542D4E909030CD176
:107620001B6E984705B0F0BD029ADB6B52F827201D
:107630000137916809099847DFE7029A1B6B52F8F6
:1076400025700122B968090901919847FB682BB997
:10765000019920460135FEF7D1FDDDE71909F8E76C
:10766000731B0560836A37B504460D469B6B00218A
:10767000406A9847A36A606A10215B6B9847294665
:10768000204601AAFDF71AFE0199204603B0BDE885
:107690003040FEF7B3BD10B4026A044640780B4692
:1076A000012804D110465DF8044B00F0FABCA16A31
:1076B000606A24315DF8044B00F002BD2DE9F04F03
:1076C0002DED028B83B0C5681E4604460E9B0F4607
:1076D0000192294608EE103AAB1C012205F1010A7D
:1076E000C360FDF791FC394620460027FEF702F8FB
:1076F000A36A00225146D3F89430606A9847A36A7F
:107700002946606ADB6A9847A36A606AD3F8D0307A
:107710009847D4F80C8008F10103E360019B9F4275
:107720001BDB2046FDF780FCA36A606AD3F8D430E7
:107730009847A36A5146606ADB6A984718EE101AA8
:107740002046FDF7D7FFA36A4146606ADB6A03B0B3
:10775000BDEC028BBDE8F04F18473346D4F80C90CF
:10776000043601371A68009209F10102E260009ABA
:10777000D2F808B0BBF1000F47D1019ABA4237D115
:107780000025A36A606AAB461B6E9847009B2046A3
:10779000D968FDF7AFFFCDB1A26A1021606A526BC4
:1077A0009047A26A5946606AD26A9047A36A10213C
:1077B000606A5B6B984729462046FEF71FFD20460E
:1077C0002946FFF768FF2046FDF72EFCA36A012239
:1077D0004146606AD3F894309847A36A4946606A84
:1077E000DB6A9847A36A0121606ADB68984795E7DE
:1077F00020461F4A1968FDF7E7FD204603B0BDEC9F
:10780000028BBDE8F04FFDF70FBC1BF003052DD137
:107810009BF804205B46762A03D1DD68DBF808B0CC
:107820002D09A36A606A9B6D984759462046FDF76B
:1078300061FFA36A0821606AD3F89C309847A36A65
:107840004A4600211B6F606A9847002D98D0294650
:107850002046FEF7D3FCD4F80CB020460BF1010211
:107860005946E2600222FDF7CFFB8FE70025D8E7FB
:10787000901B05602DE9F043C768164685B00D469C
:107880007A1C394603930446C2600222DDE90C9853
:10789000FDF7BAFB039B16BBA36A0321606ADB6892
:1078A000984729462046FDF725FFA36A6FF002019D
