:0200000460009A
:10000000464346420004015600000000010303007D
:100010000101000001040000400000000000000099
:1000200000000000000000000000000000000000D0
:1000300000000000000000000000000000000000C0
:1000400000000000010406000000000000000000A5
:100050000000800000000000000000000000000020
:100060000000000000000000000000000000000090
:100070000000000000000000000000000000000080
:10008000EB04180A063204260000000000000000FD
:100090000504012400000000000000000000000032
:1000A0006B0418080832042600000000000000005D
:1000B0000604000000000000000000000000000036
:1000C0008104042400000000000000000000000083
:1000D00020041808000000000000000000000000DC
:1000E00001040420000000000000000000000000E7
:1000F0003204180804220000000000000000000084
:1001000090041830002400000000000000000000EF
:100110000204180800200000000000000000000099
:100120003504000000000000000000000000000096
:10013000600400000000000000000000000000005B
:10014000F5060000000000000000000000000000B4
:10015000000000000000000000000000000000009F
:10016000000000000000000000000000000000008F
:10017000000000000000000000000000000000007F
:10018000000000000000000000000000000000006F
:10019000000000000000000000000000000000005F
:1001A000000000000000000000000000000000004F
:1001B000000000000000000000000000000000003F
:1001C000000100000010000000000000000000001E
:1001D000000001000000000000000000000000001E
:1001E000000000000000000000000000000000000F
:1001F00000000000000000000000000000000000FF
:10100000D10020430020006000000000E07D066069
:1010100020100060001000600000000000000000D0
:1010200000000060203D070000000000FFFFFFFF00
:102000000000022039840460CD580000D15800003F
:10201000C9580000C9580000C9580000000000005D
:10202000000000000000000000000000D558000083
:10203000C958000000000000FD6C0460B974046021
:10204000E1580000E5580000E9580000ED58000094
:10205000F1580000F5580000F9580000FD58000044
:102060000159000005590000095900000D590000F0
:102070001159000015590000195900001D590000A0
:1020800021590000C9580000C9580000C958000073
:1020900025590000295900002D5900003159000030
:1020A00035590000395900003D59000041590000E0
:1020B00045590000495900004D5900005159000090
:1020C00055590000595900005D5900006159000040
:1020D0006559000069590000C9580000C95800003E
:1020E000C9580000C9580000C9580000C95800006C
:1020F000C9580000C9580000C9580000C95800005C
:10210000C9580000C9580000C9580000C95800004B
:10211000C9580000C9580000C9580000C95800003B
:102120006D5900007159000075590000795900007F
:102130007D590000C9580000C9580000C958000066
:10214000C9580000C9580000C9580000C95800000B
:10215000C9580000C9580000C9580000C9580000FB
:10216000C9580000C9580000C9580000C9580000EB
:10217000C9580000C9580000C9580000C9580000DB
:1021800099540460A9540460B9540460C9540460AB
:10219000D9540460E9540460F9540460095504609A
:1021A00019550460295504608159000085590000C3
:1021B000C9580000C9580000C9580000C95800009B
:1021C000C9580000C9580000C9580000C95800008B
:1021D000C9580000AD750460C9580000C958000016
:1021E000C9580000C9580000C958000089590000AA
:1021F0008D590000C9580000915900009559000000
:10220000732E04605D2E0460995900009D590000F2
:10221000C9580000C9580000C9580000C95800003A
:10222000C9580000C9580000C9580000C95800002A
:10223000C9580000C9580000C9580000C95800001A
:10224000C9580000C9580000C9580000C95800000A
:10225000C9580000C9580000C9580000C9580000FA
:10226000C9580000C9580000C9580000C9580000EA
:10227000C9580000C9580000C9580000C9580000DA
:10228000C9580000C9580000C9580000C9580000CA
:10229000C9580000C9580000C9580000C9580000BA
:1022A000A1590000A5590000A9590000C958000013
:1022B000AD590000C9580000C9580000C9580000B5
:1022C000C9580000C9580000C9580000C95800008A
:1022D000C9580000C9580000C9580000C95800007A
:1022E000C9580000C9580000C9580000C95800006A
:1022F000C9580000C9580000C9580000C95800005A
:10230000C9580000C9580000C9580000C958000049
:10231000C9580000C9580000C9580000C958000039
:10232000C9580000C9580000C9580000C958000029
:10233000C9580000C9580000C9580000C958000019
:10234000C9580000C9580000C9580000C958000009
:10235000C9580000C9580000C9580000C9580000F9
:10236000C9580000C9580000C9580000C9580000E9
:10237000C9580000C9580000C9580000C9580000D9
:10238000C9580000C9580000C9580000C9580000C9
:10239000C9580000C9580000C9580000C9580000B9
:1023A000C9580000C9580000C9580000C9580000A9
:1023B000C9580000C9580000C9580000C958000099
:1023C000C9580000C9580000C9580000C958000089
:1023D000C9580000C9580000C9580000C958000079
:1023E000C9580000C9580000C9580000C958000069
:1023F000C9580000C9580000C9580000FFFFFFFF7E
:10240000024B5A69026058610020704700080020A2
:10241000024B5A6912685A61704700BF00080020D9
:10242000C460056146618761C0F81C80C0F82090D7
:10243000C0F824A0C0F828B0C0F82CD080ED0C8BD8
:1024400080ED0E9B80ED10ABC0F808E0FFF7D8BF21
:10245000104908B54B690BB943F0F1FF1A68586091
:102460004A611846C468056946698769D0F81C80C6
:10247000D0F82090D0F824A0D0F828B0D0F82CD0F4
:1024800090ED0C8B90ED0E9B90ED10ABD0F808E02A
:10249000012070470008002010B5002104464DF0CF
:1024A000ABFE18B914B120464DF072FF10BD0021EB
:1024B0004DF0A2BE10B5012104464DF09DFE18B9A5
:1024C00014B120464DF064FF10BDFFF7E5BF10B515
:1024D00001220C464DF0B4FE18B914B120464DF05F
:1024E00057FF10BD4DF0ACBE4DF056BF484308B588
:1024F0000830FFF7DCFF40B1044A536A03B11860AB
:102500000021C0E900135062083008BD0008002017
:10251000034678B153F8042C083812B153F8081C5C
:10252000116053F8083C13B15A604DF035BF024BAF
:102530005A62FAE7704700BF000800200346054AC8
:10254000106A1A6841688A4202D3521A1A607047A8
:102550000068F7E700080020014441F20553884273
:1025600004D398B2012838BF0120704703EB43130E
:1025700010F8012B5340F2E7034B044A1A62002281
:10258000C3F83023704700BF00080020B0E90560A1
:102590002DE9F04780460E46FFF7DEFF124B074657
:1025A0001C6A0CB920461AE0D4F80C90002504F1FE
:1025B000180A4D4501D12468F3E7236933F8153033
:1025C000BB420ED163695B5DB3420AD132464146DC
:1025D0005AF8250045F01FF918B960682844BDE88D
:1025E000F0870135E5E700BF000800202DE9F8433A
:1025F00081460E46FFF7CCFF0246002840F08B8054
:10260000FF2E03D9454946484DF0FAFD454C751C4F
:10261000D4F8300390B1D4E9CD132B448B4229D99F
:102620002944FFF75FFF0746D8B90246D4F83813AC
:10263000D4F83003FFF756FFC4F83073802D2F46CF
:1026400038BF80273846FFF732FFC4F83003D0BBCD
:102650002846FFF72CFFC4F8300398BB28464DF0FE
:1026600097FED4F834332B44C4F83433D4F83033E1
:10267000002BE3D0D4F838333146D4F830734846D1
:102680001F442B44C4F83833FFF766FF49464FF028
:10269000000980463246384645F05CF807F8069057
:1026A000236AD3E90253AB4225D36D000A2D38BF0C
:1026B0000A25C5EBC5001830FFF7F9FE48B9C4F884
:1026C0003003CBE72F460023C4F83473C4F8383303
:1026D000D0E700F11803226A03EB8503026003616F
:1026E00003EB450343615368D268C0F80C90134470
:1026F000C0E901352062236AD3E903215B6921F82F
:102700001280911D9E54236A43F821705868D9683D
:1027100002440131D9601046BDE8F8838B0505609D
:10272000907305600008002010B5044645F085F858
:1027300001462046BDE81040FFF758BF07B501909D
:1027400001A8FFF7FBFE019A036933F8120003B0FA
:102750005DF804FB07B5019001A8FFF7EFFE019BB0
:102760004269D05C03B05DF804FB07B5019001A895
:10277000FFF7E4FE019B063350F8230003B05DF839
:1027800004FB13B5019001A80C46FFF7D7FE019B8F
:102790004269D25C063350F82300226002B010BDBB
:1027A0002DE9F8431D460023074688460360164678
:1027B0000B6013602B60154BDFF854901C6A0CB152
:1027C0004C4505D12B68326813442B60BDE8F88373
:1027D0003B6801333B60E268D8F80030134462691B
:1027E000C8F80030E368D1188A4207D320464DF07C
:1027F000F3FD2B68246818442860E0E7336812F87A
:10280000010B013303443360EEE700BF00080020F2
:10281000B0E905602DE9F8430D4B0E4F1C6ADFF857
:102820003880DFF838900CB1BC4201D1BDE8F883A4
:1028300004F11805E36805EB8306B54201D324686B
:10284000F1E755F8042B4146484600F0CFFCF4E789
:1028500000080020B0E90560990505606450056036
:1028600038B54468054603682144994210D9037B72
:102870001BB1002107484DF0C3FC01F11004806832
:1028800024F0070408342146FFF721FE2C60A860DD
:1028900038BD00BF9073056070B504460E46114602
:1028A0001546FFF7DDFF31462A46D4E901301844CA
:1028B00044F077FF62682A44626070BD70B5466874
:1028C0000446B14228BF31460D460121FFF7C8FF3B
:1028D000A368681C721B5919184444F062FF6368AE
:1028E000A06801332844636070BD012938B538BF42
:1028F000012104460025084621606560FFF7CCFDF4
:102900002573A06038BD38B505460C460131FFF788
:10291000ECFF6C6038BD00230160C0E90132012387
:102920000373704738B514460546FFF7DEFF024BC8
:102930002560636038BD00BF99280060037B10B537
:10294000044613B98068FFF7CFFD0023A36010BDD4
:1029500013B501901020FFF79FFD04460199FFF782
:10296000C4FF204602B010BD10B5044648B1037B39
:1029700013B98068FFF7B8FD2046BDE81040FFF7A7
:10298000B3BD10BD38B5037B04460D461BB1002115
:1029900006484DF035FC016880682944FFF797FD33
:1029A0002368A0601D441844256038BD90730560FD
:1029B00038B504460D46FFF753FFD4E901301D44F6
:1029C0001844656038BDD0E9002310B59A4204462A
:1029D00002D10121FFF7D6FF0021D4E90132D15401
:1029E000A06810BD10B50C460121FFF7E1FF04708F
:1029F00010BD7F29F8B50C46CEB204D80121FFF7EF
:102A0000D7FF0670F8BD06F03F06B1F5006FC1F3C1
:102A1000871546F0800607D265F03F050221FFF7D3
:102A2000C7FF46700570EDE705F03F05B1F5803F43
:102A3000C1F3073745F0800508D267F01F0703216F
:102A4000FFF7B6FF457007708670DBE7A40C07F050
:102A50003F07042164F00F0467F07F07FFF7A8FF2A
:102A6000857004704770C670CCE713B504460846FD
:102A7000019144F0E2FE01990246204602B0BDE811
:102A80001040FFF709BF10B51446FFF717FF047099
:102A900010BD10B51446FFF711FF047010BD436858
:102AA0008B422CBF591A00214160704738B504464B
:102AB0001546084662688A4203D929448A4201D8E9
:102AC000606038BDA368521A1844194444F069FE86
:102AD0006268521B6260F4E7084611464DF090BCF4
:102AE00037B505460846019144F0A7FE044620B1DB
:102AF00002466B68019928689847204603B030BDAC
:102B00002DE9F74F89469DF8301017460D9A11F0C0
:102B1000DF0F0646A2EB07023DD030290CA825495D
:102B200013BF80464FF0100A88464FF0010A13F099
:102B3000800535D002EBD2746510A2EB6404002D41
:102B400035DDAB46DA45524673684146A8BF5A4662
:102B5000306801929847019AABEB020BBBF1000F72
:102B6000F0DC2FB13D4473683A46494630689847D7
:102B7000002C0CDD2544A245574673684146A8BF8A
:102B800027463068E41B3A469847002CF3DC284679
:102B900003B0BDE8F08FDFF820804FF0100AC6E7E1
:102BA00013F0010401D11546C9E71446D9E7002501
:102BB000D7E700BF7D5005606C5005602DE9F043FC
:102BC000064689B00020119D9DF84880139F8DF81E
:102BD0000F000AB381421ADA2D2249428DF80F20E4
:102BE000109A08AC0DF11009A2F10A008E46B1FB53
:102BF000F3FC03FB1C126146092A8CBF1218303209
:102C000004F8012D4C450ED07345EFD90BE0A80711
:102C100027D52B228DF80F200029E1D130230DF18B
:102C20001F048DF81F3015F040099DF80F301CD09F
:102C300023B301222B460DF10F013046013FCDE9B0
:102C40000082FFF75DFF814608AA2B4621463046E9
:102C5000121BCDE90087FFF753FF484409B0BDE8D8
:102C6000F0836A07D8D52022D4E7002BECD004AA41
:102C70009442E9D904F8013C013CE5E79946E3E7D1
:102C80002DE9F04F93B01E4681460C469DF87430F6
:102C900092461C9D0793CB07DDE91E870BD488075E
:102CA00003D109687E4B994205D020460AF0ECFE1C
:102CB000400040F0010415F0810306D1079A302A44
:102CC00003D1B845B8BFB8461F4620460DF1280BC2
:102CD0000EF030F8002818DBA90712D52B230DF1D0
:102CE00029018DF82830EB06F6B21DD5BAF1020F96
:102CF0000DD130200B4603F8020B701C48701946AA
:102D000012E06A0701D52023E9E75946EBE7BAF15B
:102D1000080F61D1A8054FF030030B7049BF06F1D1
:102D20000E0301314B700231002315F0200FA1EB8F
:102D30000B020EA80B700CBF19462C21012F069216
:102D4000C8BF45F040050B9010208DF8273015F0D6
:102D50004002CDE90C030592CDE9026146D00DAAEF
:102D60000CA90BA8CDE900A323460DF0BBFE037808
:102D700082462D2B06D18DF8273000F1010A0D9BDC
:102D8000013B0D93012F40F384800D9C059BBC42B9
:102D9000B8BF3C462BB19DF8273003B10134069BE8
:102DA0001C44A0452DDD15F00103A8EB040429D136
:102DB00026461C4625F001054EB1202301963949CF
:102DC0004846009300231A46FFF79AFE0646059BE5
:102DD000D3B9302307933AE0BAF1100FA4D13020D1
:102DE0000B4603F8020B06F1170087E70AAB0DAAA2
:102DF0000CA90BA8CDE900A323460DF073FE824673
:102E0000C0E700240026D5E7302307939DF827303C
:102E10005BB1002301220DF12701484608F1FF387C
:102E2000CDE90032FFF76CFE0644069B63B1002338
:102E3000012259464846CDE90032069AFFF760FE66
:102E4000069B0644A8EB0308012FD8BF4746079B03
:102E500051460D9A484600932B460197FFF750FEC6
:102E600006444CB120230F494846019400930023A7
:102E70001A46FFF745FE06440B980EAB984201D068
:102E8000FFF732FB304613B0BDE8F08F0024264632
:102E9000BCE7059B002BF9D11C461E464746D6E7EA
:102EA00058780560666306602DE9F04316468BB0DE
:102EB00007469846B207DDF8489040D416F0040F54
:102EC0000CBF002320230A4600932021139B02A855
:102ED00009F016FBF305044610D5431C1F2B0DD833
:102EE00000F1280200210DEB0204252204F8202C19
:102EF00003F128021C466A4402F8201C16F0400523
:102F00001FD09DF808302F2B4FF000031BD8012253
:102F100002A9384609F1FF39013CCDE90032FFF73B
:102F2000EFFD0DF109010546334622463846CDE94D
:102F30000089FFF7E5FD28440BB0BDE8F0832B23A3
:102F4000C1E702A9F0E702A91D46EDE72DE9F04F20
:102F5000074689B014460025DFF88C820B461E46D2
:102F600013F8012B92B9B14213D30B78002B00F068
:102F70003481013120234FF0000A084610F8012B5C
:102F800082B94FF000094FF00A0C2AE0252AE6D159
:102F9000E9E7A6EB01097B6838684A464D44984743
:102FA0003146E2E72D2A03D14AF0010A0146E4E75F
:102FB0002B2A02D14AF0020AF8E7202A02D14AF06D
:102FC000040AF3E7212A02D14AF0080AEEE7302A80
:102FD000D7D14AF0400A1346E8E70CFB0929A9F1CA
:102FE00030090E4611F8012BA2F130000928F4D95E
:102FF0002E2A33D172782A2A0FD00A464FF00A0CB3
:103000000021164612F801BBABF13000092807D8A1
:103010000CFB01BBABF13001F3E7023654F8041BA3
:1030200021EAE17B32786C2A08BF01363178002929
:1030300000F0D38078295FD8572912D8472959D86A
:10304000442959D907345246384624F00704CDE9BB
:10305000009BB4EC020BFFF727FF5FE04FF0FF3B54
:10306000E0E7A1F15802202A46D801A050F822F04A
:10307000AB310060F9300060F9300060F930006079
:10308000F9300060F9300060F9300060F93000601C
:10309000F9300060F93000600731006029310060CC
:1030A0008F31006045300060453000604530006081
:1030B000F9300060F9300060F9300060F9300060EC
:1030C000F9300060F9300060F9300060F9300060DC
:1030D000CB3100603D310060F93000606731006045
:1030E000F9300060AB310060F9300060F930006009
:1030F000AB310060502968D07B68012231463868C6
:10310000013598470BE054F8042BCDE900395346BC
:103110003AB1042233493846FFF7F2FC0544711CEA
:103120001CE705224146F6E754F8042B07A98DF861
:103130001C200122CDE900395346ECE707A954F8D9
:10314000040B0493FFF71DFBBBF1FF3F0146049BFB
:1031500004D0079A934538BFCDF81CB0079ACDE943
:1031600000395346D7E754F8041B059308460491E9
:1031700044F063FBBBF1FF3F0246DDE9041302D0DC
:10318000584528BF5A46CDE900395346C3E7CDE933
:10319000023961230122CDF804A000930A2354F8D8
:1031A000041B3846FFF70AFDB8E74A1C21F00F015F
:1031B000CDF804A002F006020F39CDE90239C9B2F8
:1031C000C2F1100300910022E9E7CDE90239612341
:1031D000CDF804A000931023F5E7284609B0BDE818
:1031E000F08F00BF585005605D5005600EB403B508
:1031F00003AA52F8041B0192FFF7A8FE02B05DF883
:1032000004EB03B0704790F90010024603780029E0
:1032100001DB1846704703F07F004023184206D1B7
:1032200012F8013F03F0C001802904D0704720EA62
:1032300003005B08F2E703F03F0343EA8010EFE787
:10324000431C18460133027802F0C002802AF8D0ED
:10325000704703460020994200D8704711F8012DAD
:1032600002F0C002802A18BF0130F4E7014403468F
:10327000002099421A4600D870471278013302F0B4
:10328000C002802A18BF0130F3E700007F289DBFED
:10329000024B185CC0F34000002070478E50056060
:1032A0007F289DBF024B185CC0F3C0000020704710
:1032B0008E5005607F289DBF024B185CC0F38000D4
:1032C000002070478E5005607F289DBF024B185C20
:1032D000C0F38010002070478E5005607F2809D809
:1032E000064B1B5C13F00C0F06D1A0F15F03584294
:1032F0005841704700207047012070478E5005608C
:103300007F289DBF024B185CC0F30010002070475F
:103310008E5005607F289DBF024B185CC0F34010A3
:10332000002070478E50056008B50246FFF7E8FFA1
:1033300000B12032104608BD08B50246FFF7EAFF8B
:1033400000B1203A104608BD3038092884BF20F06B
:1033500020000738704701440246002010B5E524DC
:10336000914203D8B0FA80F0400917E012F8013B0F
:1033700030B103F0C003802B11D10138C0B2EFE7A8
:10338000BF2B09D9F72B09D8D80800F0060044FA5A
:1033900000F000F00300E3E71B06E1D510BD0020BC
:1033A000FCE7023981420B4603D31A880239002A0E
:1033B000F8D00233181A40107047B2EB131F70B5E3
:1033C00005464FEA131615D9901B03F00F0401EBC5
:1033D000460102460E46012A31F8023B18BF336807
:1033E000013A23FA04F39BB225F8023BF2D103B968
:1033F000013870BD0020FCE7F0B5059F0024D21B0A
:103400002646A74210D100EB470C002401EB4701F0
:10341000A24214D10CEB42031EB1012102332CF85D
:103420001210181A4010F0BD31F8145033F814C0BF
:103430006544354420F814502E0C0134E1E731F88E
:10344000145035442CF814502E0C0134E0E7F0B43D
:10345000049F0025D21B2C46AF420BD100EB470640
:10346000002301EB47059A420FD106EB4201F0BC65
:10347000FFF797BF31F81560344433F81560A41B8B
:1034800020F8154024140135E6E735F813100C44F4
:1034900026F8134024140133E5E7022938B538BF74
:1034A0000221044680680D4618B12368B1EB930FE2
:1034B00007D96900FFF70BF82368A06065F39F0345
:1034C000236038BD38B504460C20FEF7E5FF0546FD
:1034D00023682278C3F39D0023F0030302F0010266
:1034E000400013432B6063686B60FEF7D5FFA86054
:1034F0002268A168C2F39D02520044F02BF92846CD
:1035000038BD994210B511D313D800EB410002EB3E
:10351000410209B9084610BD30F8023D32F8024DAB
:103520001B1B002B02DB04D10139F2E74FF0FF3007
:10353000F1E70120EFE710B5044638B18068FEF7E7
:10354000D3FF2046BDE81040FEF7CEBF10BD38B512
:103550000C4602210546FFF7A0FF002C2B78B5BFD3
:10356000012200226142214662F3000301222B70F6
:10357000AB68023B23F8021F090C104602F101025E
:10358000F8D1686038BD0023C0E90033836070471C
:1035900028B103789B0702D48068FEF7A5BF704767
:1035A00038B505460C464968FFF777FF22782B7837
:1035B000A86862F300032B706368A1686B6062689F
:1035C000BDE83840520044F0C5B80A4629B9017830
:1035D000426062F3000101707047FFF7B8BF08B5A1
:1035E000FFF7D1FFBDE80840FFF7EFBF920042F0C0
:1035F00002020260002210B4C0E901215DF8044B10
:103600001946FFF7E2BFF8B514461D469DF818703D
:1036100004210646FFF741FF22462B4627B1002D25
:103620000CDA624265EB4503317867F300013170D3
:103630000021716052EA030102D1F8BD0027F3E7CF
:10364000D6E901104C1C746020F81120120C42EADB
:1036500003421B0CEEE72DE9F84353EC102B1E46FA
:103660000378074610EE105AF20F62F3000303705E
:1036700047F6F07313EA164207D13B786FF3000365
:103680003B7000237B60BDE8F8839A42F5D0C6F317
:103690000A52A2F2FF34002CEFDB04D10121BDE875
:1036A000F843FFF754BFA2F2EF38C6F31306B8F1A0
:1036B000000F46F48016B8BFA2F57878332C4FEA95
:1036C00028183FDCC4F13402A4F11403C4F114043B
:1036D00006FA03F3D54026FA04F4D6401D432543E9
:1036E0000024A14641463846FFF7D7FEC7F80480BC
:1036F000B9F1000F05D04FEA49020021B86844F043
:1037000068F89CB105FA04F2BB6823F81920C4F1EB
:103710001003103409F10109A3F12002DD4006FA7B
:1037200004F426FA02F2DE40254315434B46984541
:10373000A9D0BA6822F813502D0C013345EA06458A
:10374000360CF4E7A2F233430C34002B04F00F04E0
:10375000B8BFA2F224434FEA2319C3E72DE9F84387
:103760008F18C2F35B0204460D46511C9846089E12
:10377000FFF793FE237829461FFA86FC68F30003BF
:10378000237000236360B942084602D3401BBDE8A2
:10379000F88302780131A2F13003092B05D9A2F197
:1037A0004103192B14D8A2F13703B342EED2D4E966
:1037B00001E0F0468146B8F1000F10D100EB4E0257
:1037C00013B1023220F81E30121A52106260DAE78A
:1037D000A2F16103192BD9D8A2F15703E5E7B9F893
:1037E000002008F1FF3802FB0C3329F8023B1B0CC8
:1037F000E1E7F8B5044615461E46C1B1531E4FF029
:10380000FF371E44E90020460F310909FFF745FE46
:10381000237800216FF30003616023704DB9D4E970
:10382000011000EB4101FFF7BCFD6060F8BD01270E
:10383000E8E700230F290ADC3278013D3E4402FA12
:1038400001F201F1080143EA02039BB2F2D162687E
:103850001039501C6060A06820F81230DEE738B5DF
:103860000B780446057803F0010305F00100181AEF
:1038700008D1D1E90132D4E90110FFF742FEEB078C
:1038800048BF404238BD884210B5044601D0FFF71A
:1038900087FE23786FF30003237010BD884210B5B4
:1038A000044601D0FFF77CFE63683BB12378C3F385
:1038B0000002C2F1010262F30003237010BD8842CE
:1038C0001FB5044601D0FFF76BFE626862B90121A3
:1038D0002046FFF7E2FD0123A2681380636023788E
:1038E00043F00103237010E02378D9070FD56FF35D
:1038F0000003A168237001230846ADF80E30009341
:103900000DF10E03FFF7A3FD606004B010BD511C64
:103910002046FFF7C2FD0123D4E90121ADF80E30A6
:10392000009308460DF10E03FFF766FD6060D6E7D1
:103930002DE9F8434B6805460E46144603B12AB9F3
:1039400031462846BDE8F843FFF72ABE02F10F01D1
:103950004FEA111803EB1111FFF79FFD14F00F044C
:10396000A8684FF0000C08BF1024D6E90131C4F15B
:10397000100408EB030701EB430E194607F1004260
:10398000013A00EB42008146E9B96FF001022CFADE
:1039900004F45343C218C452C8F1010302EB4303B9
:1039A00008F1FF321846520043F013FF831E17B18F
:1039B00033F817209AB12B786F60327862F30003E6
:1039C0002B70BDE8F8833EF8022D013942EA0C0C59
:1039D0002CFA04F24FEA0C4C29F80229D4E7013FF3
:1039E000E5E7F0B50E46496885B00546144601B1D5
:1039F00032B93146284605B0BDE8F040FFF7D0BDEA
:103A0000FFF74BFD2346A868D6E90121FFF7D5FC57
:103A10002B786860327862F300032B70DB072DD5BA
:103A2000002322097168ADF80E30994201D093420B
:103A30000FD1914222D9B36804F00F0433F8122059
:103A4000012303FA04F4013C224213D0ADF80E30F6
:103A500008E0B76837F8137057B101239142ADF809
:103A60000E30E8D8A968012350B90B806B6005E0DF
:103A70000133DAE7BDF80E30002BF3D105B0F0BD0D
:103A80000246009308460DF10E03FFF7B5FC68608F
:103A9000F4E773B50C4616460546D2E90132D1E982
:103AA0000110FFF72EFD0028BEBF234634461E46F8
:103AB0002378616832785340DB071BD401312846F4
:103AC000FFF7EBFC7368A8680093B368D4E90121A1
:103AD000FFF792FC686023786A68C3F30003002A4A
:103AE0000CBF002303F001032A7863F300022A705D
:103AF00002B070BD2846FFF7D0FC7368A868009339
:103B0000B368D4E90121FFF7A2FCE3E7F7B50D465E
:103B100016460446D2E90132D1E90110FFF7F1FC63
:103B20000028BDBF2B46354601270027B8BF1E46DB
:103B30002B78696832785340DB0714D50131204671
:103B4000FFF7ABFC7368A0680093B368D5E9012167
:103B5000FFF752FC60606268237882B962F3000369
:103B6000237003B0F0BD2046FFF797FC7368A06890
:103B70000093B368D5E90121FFF769FCEAE72A78E9
:103B800002F00102002FE9D0C2F10102E6E72DE9BF
:103B9000F04F16464A680C4685B0736805469A424F
:103BA0003EBF34460B461E4623786168DA0756BF8F
:103BB0003378012303F001031944FFF76EFCB36867
:103BC000726836780093A868D4E901E924788246BF
:103BD000A2EB0E02A9F1020984EA060106F0010631
:103BE0000392CB07C6F10008B44654BF04F0010BA2
:103BF0004FF0000B04F001041FFA88F8CBF100012C
:103C0000274689B20191614289B20291714699B900
:103C100000EB4E01BBF1000F03D00123023120F86D
:103C20001E30FFF7BEFB34402B78686064F300035E
:103C30002B7005B0BDE8F08F39F8022F0139029BD7
:103C40005A40039B17445A18914229BF009B424691
:103C500033F8022B82EA080228BF0093019B9444A8
:103C600007EA0C024FEA1C4C3F0C5A401BFA82F246
:103C70004FEA124B2AF8022BC9E72DE9F04F1646FE
:103C80004A680C4685B0736805469A423EBF344682
:103C90000B461E4623786168DB0756BF3378012345
:103CA00003F001031944FFF7F8FBA868D4E901A762
:103CB0002478A7F10208574614F0010F04F001041C
:103CC000009018BF0122A446D6E901B3367808BF98
:103CD00006F0010206F001065142C6F10009B6469F
:103CE00089B21FFA89F90191614289B20291ABEB65
:103CF0000A01039167B900EB4A013443FFF751FB16
:103D00002B78686064F300032B7005B0BDE8F08F7A
:103D100038F802BF013F02998BEA010B0399DC449A
:103D200001EB070B01995F452ABF33F802BBCB4675
:103D30008BEA090BDE444CEA0E0B4FEA1E4E4FEAAB
:103D40001C4C8BEA010B009912FA8BF221F8022B22
:103D5000120C0091CEE72DE9F74F15464A680C4644
:103D600006466B684FF6FF7B9A423EBF2C460B46D9
:103D70001D4623786168DB0756BF2B78012303F0CB
:103D800001031944FFF789FB23782A78A16883EAA5
:103D9000020CD4F80480B068DB43D243A1F1020ADC
:103DA00069680CF0010CAF6803F00103A1EB080196
:103DB00002F00102C64681460191BEF1000F19D101
:103DC00000EB4801BCF1000F03D00123023120F8C1
:103DD0001830FFF7E6FA706023782A78C3F30003FF
:103DE000C2F300025340327863F30002327003B032
:103DF000BDE8F08F3AF8021F0EF1FF3E59440B4424
:103E0000019971448E452ABF37F8021B4FF6FF71A6
:103E100059440A4483EA0201120C1B0C1CFA81FC6F
:103E200029F802CB4FEA1C4CC7E74B682DE9F04F4D
:103E3000044685B00E4615460BB1536843B9237846
:103E40006FF3000323700023636005B0BDE8F08FBB
:103E500081422ED1FFF736FBA5420646074600D128
:103E600005466B68204671681944FFF716FB226807
:103E70000021A068C2F39D02520043F0AAFCB3687F
:103E8000D4F808E00022D6F804900193F446AB6819
:103E90000EEB4908114602936B680393039B934210
:103EA00031D0ACF10200DDF804B00023CDF8009071
:103EB00018E0824204D1FFF705FB05460746D0E72C
:103EC0000027CEE730F802AF53443BF802AB194667
:103ED000029B33F8123003FB0A1300990380013967
:103EE0001B0C009100990029ECD14146881C13B1AC
:103EF0000146A8F80030A1EB0E010CF1020C0132D2
:103F000080464910CAE7616038462A7833785340C2
:103F1000227863F30002227005B0BDE8F04FFFF78E
:103F20000ABB4B6870B50546144613B11378DA071F
:103F300006D52B786FF300032B7000236B6070BDE8
:103F4000636823B90121BDE87040FFF700BB084654
:103F5000FFF7B8FA06462046FFF7B4FA01210446F7
:103F60002846FFF7F4FA636883B1A3681B88DB0770
:103F700004D5324629462846FFF757FF0123D4E9E6
:103F800001210846FFF719FA606038B93046FFF79B
:103F9000D2FA2046BDE87040FFF7CDBA324631462E
:103FA0003046FFF742FFDEE72DE9F04F0C4651683F
:103FB0008FB09046013105460293FFF76EFAD8F8AC
:103FC00004200021A86800260132520043F001FCC1
:103FD0002B786E6020466FF300032B70D8F8041026
:103FE0000131FFF75AFA41462046FFF7D9FA029B02
:103FF000A768D4F8049038464946D3E9013A0193BA
:104000005246AB680393019BFFF77BFA002832D13D
:104010000123039A606013806B6023786168C3F3A7
:10402000000200290CBF002202F0010262F300032B
:10403000029A237098F8003012785340DB0717D5A6
:104040006B682A78003B18BF012363F300022A70D3
:1040500071B14FF0FF310BA8FFF7C1FA0BAA294647
:104060002846FFF716FD029A21462046FFF711FD6C
:104070000FB0BDE8F08F01DA6E60CEE7019B03F16F
:104080000042013A4FEA420E3AF81230180406F1A3
:10409000010153D5B3B2002107EB490B09F101002F
:1040A00027F81910BC4600930BF10209C3F1100365
:1040B00060600493CC4545D33AF81220009B02FA85
:1040C00003F30493019B012B0AD90AEB0E02009B18
:1040D00032F8022CC3F11001CA4004991143049133
:1040E000019BAAF1020AC01A039B686000F100401C
:1040F000013803EB400306930EF102030993636852
:104100000593059A019B934229D302F1004B009B32
:1041100000200BF1FF3BC3F1100607EB4B0B5F4593
:1041200073D96FF000416B682BB15A18039830F8BF
:104130001220002A74D06FF0004176E05B000E463A
:104140009BB2A3E7BCF80060009B06FA03F3194397
:10415000049B2CF8021B26FA03F189B2AAE7BBF8EC
:10416000001000203BF8022C049B864642EA0142E4
:10417000B2FBF3F2099BABEB03031E46CDE9073A12
:10418000B3450ED8BBF800100844002838D1069B70
:10419000ABF1020B23F802290693059B5A1E6260BD
:1041A000ADE7089BB6F8009033F8021F19FA80F9C2
:1041B0000893009B994041EA1E4E1FFA8EF151432D
:1041C0001FFA81FC090CA9EB0C0CC1EB204126F86D
:1041D00002CB01EB2C40D3E739F802CF009B0CFA5D
:1041E00003FC4CEA1E4EB6F800C011FA8EF1614491
:1041F00026F8021B090CB345EED80844013AC4E77F
:104200000021D146079E8E46F5E7BBF80020009BB3
:1042100042FA03F1B240014390B22BF802197EE753
:10422000013B6B607FE7013B63606368002B3FF4F9
:10423000F4AE5A1837F81220002AF4D0EDE6F0B5A3
:104240001F464B6885B004460D4616464BB11378A1
:10425000DA0706D47B68012B0BD1BB681B88012BC6
:1042600007D123786FF3000323700023636005B048
:10427000F0BD01212046FFF76AF97368002BF6D0E4
:104280002846FFF71FF905463046FFF71BF906469B
:1042900001A8FFF778F97368B3B1B3681B88DB072F
:1042A0000AD52A4621462046FFF7BFFD3B46224657
:1042B000214601A8FFF778FE0123D6E9012108462F
:1042C000FFF77BF8706048B901A8FFF761F928464D
:1042D000FFF731F93046FFF72EF9C8E72A4629469D
:1042E0002846FFF7A2FD3B462A46294601A8FFF7CC
:1042F0005BFED0E7D0E901210346002001EB42023A
:1043000010B5914204D31B78DB0748BF404210BD73
:1043100032F8024D44EA0040F3E730B5D0E9012419
:10432000002304EB4202944206D302780120D20714
:1043300048BF5B420B6030BDB3F5004F04D232F88A
:10434000025D45EA0343EEE70020F4E72DE9F0477C
:104350000546D1B1981800264FF0010C03EB020975
:104360003746D5E90184A4F1020EB8F1000F0ED151
:10437000B9B3C21A18462B7813F0010FBDE8F04705
:1043800014BFFF21002143F024BA1846E3E73EF8AA
:10439000024F103744EA064695F800A0072F0AF0AE
:1043A000010A02DC08F1FF38DFE7B4B2BAF1000F0E
:1043B00006D0E4435CFA84FC1FFA8CF4CCF3072C9F
:1043C000E4B249B100F1FF3A00F8014C53450BD07B
:1043D000083F360A5046DFE782460AF8014BCA45D5
:1043E000F5E713441A1AC6E7BDE8F087000000009D
:1043F000D0E901329FED0C0B9FED0D6B02EB4303F7
:104400009A4205D30378DB0748BFB1EE400B7047F3
:1044100033F8021D07EE101AB8EEC77B00EE067BDC
:10442000B0EE470BECE700BF00000000000000000A
:10443000000000000000F0402DE9F84F446880467D
:10444000894615469B469DF828A00B9E9CB982B1D3
:10445000551E334615F8011F184639B9302303702D
:10446000002300F8013F801BBDE8F88F03F8011B13
:10447000F0E73046F2E76400ABF13A0B2046FEF776
:104480000BF807462246D8F8081043F063F9314686
:1044900032463819A0F1020C00236745644639D929
:1044A00030331446392B88BF5B4404F8013B3B464C
:1044B00098429C4638D8BAF1000F0AD00123A4EBE9
:1044C000010CBCF1030F02BF941C82F801A021462D
:1044D000F3B13846FEF708F85DB1284643F0ADF970
:1044E0002A18611E1346AB4229D8954288BF002086
:1044F000044498F80030DB0744BF2D2304F8013B47
:104500003346621E9A421FD80023A01B2370ABE7DC
:104510002246BFE7248844EA0343B3FBF9F409FBCE
:1045200014332CF80249B8E7BCF800C00233BCF1E0
:10453000000FBDD0BAF1000FEAD00023BFE713F897
:10454000017D01F8017FCEE71978107803F8010B9F
:1045500002F80119D6E7D0E9023293423DBF5A1C56
:10456000826018784FF0FF307047036810B504463A
:1045700013B14068FDF7B8FF2046BDE81040FDF7D5
:10458000B3BF0000F8B50C461F461646054610207E
:10459000FDF782FF054B8460C0E900743444C460B9
:1045A0006B60034B2860AB60F8BD00BF57450060EF
:1045B0006B45006002690A2A10B5044635D1836A4A
:1045C000013383620123A269E36263696261226F3E
:1045D0002361002A31D0616E8A423BBF501CA16E1C
:1045E0000022206738BF8A5CA2613BB9E26963663A
:1045F0002261226A23676261626AA26163690D2B8C
:1046000008D10A22A3699342626103D1D4E901036C
:104610009847A061A369013306D163695A1C03D08E
:104620000A2B1CBF0A23A36110BDC36A092A04BF59
:10463000073323F007030133C5E7D4E901039847A3
:10464000A061DBE70369272B2BD0222B29D0A3F114
:10465000620113291ED8174ACA40D2071AD54269E7
:10466000272A1ED0222A1CD0722B1CD1662A06D1E2
:104670008269272A15D0222A13D0722B15D14369BB
:10468000622B0CD1806927280BD0A0F1220358425D
:1046900058417047662BF0D14269722AE8D0002059
:1046A000704701207047662BF6D0622BF7D1436923
:1046B000722BE6E71100090070B504460D4600268E
:1046C0002069431C01D1304670BD0A2808D115B1BC
:1046D000636B002BF7D020460126FFF76BFFEFE757
:1046E000FEF7D4FD18B12046FFF764FFE8E7236921
:1046F000232B08D12046FFF75DFF23695A1CDFD02A
:104700000A2BF7D1DCE75C2BDDD163690A2BDAD108
:104710002046FFF74FFFE6E7436E2DE9F04F0446D2
:104720002DED028B85B0A3B1036F93B929216030C1
:10473000FEF758F92369E36163692362A369636241
:10474000A36E1A7822615A7862619B78A361032371
:104750002367002120466165FFF7AEFFA36AE56A83
:104760006364236BA564002B01930ADA019F08237D
:10477000013784F84C30276305B0BDEC028BBDE8EF
:10478000F08F05D0072384F84C30019B5F1EF2E7C1
:10479000002834D0636B93BB06236FF00042013DC9
:1047A00084F84C30D4E90F30991830F811108D424C
:1047B000E2D019D9A16B8B4207D308314900FDF72C
:1047C00086FEA36B20640833A363D4E90F32591C1F
:1047D000E16322F81350236B01332363CCE7013BE1
:1047E000E363236B013B2363E36B991830F81110EB
:1047F0008D42F4D3C0D0022384F84C30BCE7256945
:104800006A1C01D10023F7E72046FFF71BFF814612
:10481000002800F0B581002384F84C302369752B03
:1048200051D0622B07D16369722B51D1C846022641
:104830000D23002512E0722B06D16369622BF5D09F
:10484000662B49D10523D7E7662B49D16369722BC3
:10485000F8D04D4601260C234FF0000894F84C2068
:10486000002A3FD184F84C303EB12046FFF7A2FE2B
:10487000022E02D12046FFF79DFE23692046222BFF
:1048800014BF4FF0270B4FF0220BFFF793FE236965
:104890005B452AD163699B4527D120464FF0030A27
:1048A000FFF788FE2046FFF785FE25B1B24904F1E7
:1048B0006000FEF7DAF804F16003002704F1500607
:1048C00008EE103A1EE0012600250C23A846C5E795
:1048D00001260D230025BFE7C84601260C23A8E7C3
:1048E000019EF1E79A42BFD046E74FF0010ADCE7AC
:1048F000934533D1594630460137FEF77AF82046C2
:10490000FFF758FE2269511C00F02F81BAF1010F08
:1049100002D10A2A00F029815745E9D3394604F12A
:104920005000FEF7BCF801212046FFF7C5FE2046E7
:10493000FFF788FE00287FF471AF1DE72046FFF7E0
:1049400039FE21697B291ED13046FEF74BF82046FF
:10495000FFF730FE7B213046FEF744F821690DB1A8
:104960007B29EBD05C2940F0FB8020460291FFF7C9
:1049700021FE27690299B8F1000F38D03046FEF7C2
:1049800038F83946CBE0676E002221694B1C04D011
:10499000C2B93A2901D07D2914D1D4E91921881846
:1049A00010F8010C3D2807D1D21B39443046FDF7E1
:1049B00073FF636E013B63662C2118EE100AFEF74D
:1049C00011F8C7E721F020005B280BD10132C9B2F2
:1049D00018EE100A0292FEF705F82046FFF7EAFDEE
:1049E000029AD2E75D2808BF02F1FF32EFE7782F85
:1049F00006D85B2F0BD8222F72D053D80A2F4FD056
:104A0000A7F13001072900F2A58003279BE0A7F159
:104A10005C021C2AF4D801A353F822F0E14A00609A
:104A2000014A0060014A0060014A0060014A0060DA
:104A3000914A0060BD4A0060014A0060014A00607E
:104A4000014A0060CD4A0060014A0060014A0060EE
:104A5000014A0060014A0060014A0060014A0060AA
:104A6000014A0060C54A0060014A0060014A0060D6
:104A7000014A0060B94A0060014A0060C14A006012
:104A8000D14A0060C94A0060014A0060314B0060B1
:104A9000072194F84C300C2B5ED13046FDF7A9FF6E
:104AA00000272CE7552F13D0AAD8272F18D04E2F28
:104AB000A6D132484BF0D0FC0D21EAE70821E8E707
:104AC0000921E6E70A21E4E70B21E2E70C21E0E710
:104AD00094F84C200D2A05D15C213046FDF789FF62
:104AE0003946D6E7752F0CBF04270827002114E0AC
:104AF00020460291FFF75EFD226910460392FEF701
:104B0000E3FB002800F04C810299039A090110464A
:104B10000291FEF719FC02990144013FE8D2481CBA
:104B2000BED0B1F5881FB4D3012384F84C30B7E769
:104B30000227DBE720460291FFF73CFD226902993C
:104B4000303A02EBC1016269303A072AE7D8013FE7
:104B5000F0D1E4E75C2111E7FF29E5D80D2BE3D183
:104B6000C9B23046FDF73EFF9AE757453CBF0322E6
:104B700084F84C20D2E600BF535105605C510560BB
:104B80002846FEF78DFB054620691DB95F2801D038
:104B90007F283ED9092304F15005C1B284F84C3076
:104BA0002846FDF71FFF2046FFF704FD2069421C41
:104BB0001BD128467D4FFDF706FF0025064657F816
:104BC000041B304642F040FE00281CD10F35EDB2E8
:104BD000122D84F84C507FF4CFAD754BD3F83C3395
:104BE000002B0CBF11230F2306E6FEF759FB40B93B
:104BF00020695F2805D07F2803D8FEF75BFB0028DB
:104C0000D7D0217CCCE7FFF6B7AD0135242DD6D126
:104C1000B2E5FEF74FFB68B321692E2935D10B238E
:104C200084F84C3004F150060B273046FDF7E1FEC6
:104C30002046FFF7BFFC2069431C3FF49DAD002DCB
:104C400039D120F02003452B35D16521304684F839
:104C50004C70FDF7CEFE2046FFF7ACFC21692B29F6
:104C600001D02D29E7D13046FDF7C3FE2046FFF7DE
:104C7000A1FCE0E723692E2B04D16069FEF71AFB43
:104C80000028C9D100264B4D35E00A23302984F88D
:104C90004C30C7D1656945F02005A5F16203162B9C
:104CA00097BF454D0125DD40ED4398BF05F0010557
:104CB00085F00105B6E7FEF7F3FA28B121692E2940
:104CC0000DD184F84C70CEE72069FEF7F3FA002886
:104CD000F4D123692E2BF1D05F2BC7D04CE521F006
:104CE00020034A2BBFD1ECE7652F01D0632F00D101
:104CF0000135013601352F7817B12369BB42F3D155
:104D00002046FFF757FC0FB9012375E5212F07D186
:104D100023693D2BF8D12046FFF74CFC3A236BE585
:104D20002E2F0FD123692E2B02D163692E2B01D098
:104D30005D2361E52046FFF73DFC2046FFF73AFC86
:104D40000E2359E50335334615F8027C632F0FD047
:104D5000652F0DD0194AD35C03F0FD0284F84C3066
:104D6000552A01D0592B13D1636B0133636303E5DB
:104D700015F8012C01362169914207D12046FFF731
:104D800019FC3346652FE5D00235DDE7632FFAE7DE
:104D9000562B02D0582A7FF4EFAC636B013BE5E75A
:104DA0000123014684F84C3073E600BF18520560B9
:104DB000000800200E51056001204000E951056007
:104DC0007FB501AD0646742085E80E00FDF764FB53
:104DD0000446034695E8070043F8046B002583E882
:104DE000070001236FF001021420C4E90A320A22ED
:104DF000C4E90C55C4E90E23FDF74EFB20212064C5
:104E000004F15000FDF771FD294604F16000FDF743
:104E10006CFD236C20461D802561C4E90555FFF714
:104E2000C9FB2046FFF7C6FB2046FFF7C3FB204621
:104E3000FFF772FCA36C2046012B1CBF072384F8EC
:104E40004C3004B070BD30B585B0054601AC20468D
:104E5000FFF798FB284694E80E00FFF7B1FF05B076
:104E600030BD30B585B00546014601AC20461DF089
:104E7000FFF92846FDF758FC94E80E00FFF7A0FF65
:104E800005B030BD10B5044690B1C368406898477E
:104E900004F15000FDF752FD04F16000FDF74EFDF6
:104EA000206CFDF721FB2046BDE81040FDF71CBB40
:104EB00010BD0000F8B5054630200E461746FDF738
:104EC00004FB072D04460570C66001D0012D0FD1EB
:104ED000B368C3F30F13A38207F0DAFF0423206142
:104EE00020202783E384FDF7D7FAE0622046F8BD4F
:104EF000014B5B5DEFE700BF3058056010B504461D
:104F0000C06AFDF7F1FA2046BDE81040FDF7ECBAA3
:104F100030B500220446058D954201D8002030BDF1
:104F2000E36A03EBC20043688B42F8D00132F3E737
:104F300070B504460D461646FFF7EAFFC0B9E38C8C
:104F4000228D9A4208D30633E06AD900FDF7BFFAF2
:104F5000E38CE0620633E384238DE26A591C02EBA2
:104F6000C300218502F8336000234560437043800D
:104F700070BD034618465B68002BFBD1FFF7C8BF26
:104F8000F8B544680E462CB9F8BD042BFCD10523B6
:104F90000370F9E7254628466D68002DF4D0776840
:104FA0003946FFF7B5FF0028F5D00378043B022B04
:104FB000EAD806253570002239462046FFF7B8FFAB
:104FC0000378002BE1D105706468F4E7036A1B8B5A
:104FD000012B1EBFC3685B18C3607047836A10B59E
:104FE00004469B6F406A9847238B226A0133918C59
:104FF0009BB29942238338BF938410BD038B013B3E
:1050000010B503830446836A406AD3F8803098471A
:1050100020460121BDE81040FFF7D8BFF7B51E4676
:1050200059B111F0030511D14F68FCB294420DD172
:105030003F0A01F10804BD4201DB03B0F0BD54F8A2
:10504000041B01350190B0470198F4E7334603B0E3
:10505000BDE8F04018472DE9F04F04460D4698464C
:105060002DED028B08EE102A83B01BB1CB8A43F0E2
:105070000803CB8218EE103AEB83236ADA8A42F0F7
:105080003002DA821B78002B4CD1A36A18EE102A6A
:105090002946606AD3F8B0604346B44603B0BDEC1D
:1050A000028BBDE8F04F6047DB6A03EBC60B13F8D9
:1050B0003630053B012B1DD84FF0000917E0EB6A95
:1050C00003EBC90213F83930062B0ED1DBF80410BC
:1050D0005368994209D1A36A0AF1010ABBF8022078
:1050E0001B69606A1F460023B84709F101092B8D2F
:1050F0004B45E4DC0136236A1A8DB242D4DCBAF1A6
:10510000000FC2D0A36A5246CDF800802946D3F8DA
:10511000B46018EE103A606AB04703B0BDEC028B81
:10512000BDE8F08F0026B246E5E70000F8B50E4670
:1051300011461A4600230446857807698370036187
:105140000E4BFFF76BFF6368BBB9618A51B1228ACE
:1051500042B9A36A606AD3F89C309847A36A606A30
:105160001B6C9847238A3146628A2046FFF773FFFB
:10517000003D276118BF0125A570F8BD255D0060C1
:10518000024B9D228968FFF749BF00BF1D7900606F
:10519000024B6B228968FFF741BF00BF2976006090
:1051A000836A002110B50446D3F88430406A9847DA
:1051B000A36A606A10211B6B9847A36A606A012189
:1051C000D3F8C830984720460321BDE81040FFF7C8
:1051D000FDBE38B5836A04460022406A5B6C98477E
:1051E000A36A606AD3F8BC5000231A461946A84740
:1051F0002046BDE83840FFF7D3BF836A00228968A4
:105200001B6D0909406A1847836A8968DB6B406A2D
:10521000184710B50446084611461A46FFF74AFEDD
:10522000236A436000238360E3690BB9E06110BD2A
:105230001A469B68002BFBD19060F8E770B5437865
:1052400005460C46012B06D1036A0A4602211B8B38
:10525000FFF7DFFF2061A268284621694C23BDE8E3
:105260007040FFF763BF70B51346427805460C46A1
:10527000012A04D10A460721FFF7CBFFA061A669E6
:1052800028464623E2683146FFF750FFB08A70BDDA
:105290002DE9F04F85B005460C4600AF11B901214C
:1052A000116015E011F003081BD10B79682B07D1B1
:1052B000CB681B0913608C68002CF0D04FF00108FC
:1052C00004F00F03022B0FD12109B8F1000FE7D032
:1052D000AB6A0022686ADB6A98471437BD46BDE8AE
:1052E000F08F4FF00008EBE7B8F1000F02D1A36890
:1052F0001B091360666804F1080A360AD14606F1F4
:10530000FF3B0AEB860659F8040B0009FDF722FA69
:10531000B1458344F7D10BF1070323F00703ADEB4D
:10532000030D6B4699465AF8040B07F10C013B60DC
:105330000009FDF726FAFA68014648467A6042F00D
:1053400009FA7A68B2453B68914418D15946184623
:10535000FDF74CF9AB6A01460022DB6A686A9847A0
:10536000B8F1000FB9D00C34A642B6D054F8041BE3
:105370000022AB6A0909686A1B6D9847F4E74FF091
:105380002E0209F8012BCEE731B101F00303826848
:10539000134304BF0B6883607047000038B543684F
:1053A0000D46044611464BB905480AF00DFB294647
:1053B00060602046BDE83840FFF7E6BF38BD00BF5B
:1053C000FC7305602DE9F04F0E46044615462DEDA1
:1053D000028B0162002142708DB0C1603378072BCF
:1053E00007D08B4A0DB0BDEC028BBDE8F04FFFF744
:1053F000D5BF012A05D0036B021D2946C06A1B6870
:1054000098476378D6F80C90032B10D10BAA46214D
:1054100009F10C004AF0ECFE236B01460B9A9B68E5
:10542000E06A984763687083002B40F0B780D9F832
:105430001010C1B101F00F06022E10D10B09752B0F
:105440003DD006D83E2B3CD05E2B0DD0714A204675
:10545000C8E740F2CB429342F8D1032604E06E4AFB
:105460002046FFF79BFF0226D9F814304FF0000AC0
:1054700009AA192108A808934AF0BAFE0690069BCB
:105480009A4520D16378012B15D9236B3146E06A08
:105490005B6898476378042B0DD1206A0521039639
:1054A000438BE26A02930023CDE90033D2E9023252
:1054B000006907F007FD6368002B6FD114E0002638
:1054C000D2E70126D0E7099B4FEA8A0B53F82A104E
:1054D0000B79082B02D10AF1010AD0E7052B08D07D
:1054E0004E4A2046FFF75AFF0DB0BDEC028BBDE8D7
:1054F000F08FCB68002BF3D18B681A792C2AEFD16F
:105500009F6807F00F02022AEAD1DB680593002B9F
:10551000E6D09A07E4D11B79302BE1D1059B0AAA8A
:10552000A4213F0903F108004AF062FE40F2E9338A
:1055300080469F421BD1012805D10A9A136803F0C7
:105540000F03022B04D0364A099B53F80B10C8E70F
:10555000E168012D01F10103E3601AD01268236BA9
:105560001209E06ADB68984798B92E4AECE740F2E6
:1055700037339F4216D1012803D10A9B1968CB0704
:1055800001D4294AE0E7012D03D04910E06A03F075
:1055900099FA6368002B9ED0DDF81490D9F800309A
:1055A000A360A1E740F276339F4226D1012804D9B7
:1055B0000A9B1B6813F0010701D11C4AC4E7012DA7
:1055C000E7D05B1008EE103A0A9B0BA953F82700AE
:1055D0004AF08AFE08B9164AB6E7E36A01370B9823
:1055E00007930BF0ADFC079B024618EE101A184605
:1055F00003F06FFAB845E7D1CBE7012DC9D0236B93
:1056000002463946E06AD3F810B00A9BD847C0E793
:10561000375805605B58056068580560905805600C
:10562000B3580560CF580560DF580560FB5805602A
:1056300020590560014AFFF7B1BE00BF425905601D
:105640000B79092B4FF6FF7370B508BF858A0446A6
:1056500018BFC58A9D4202D1064AFFF79FFE218BE3
:10566000628BA36A8A1A606A29465B6FBDE8704044
:10567000184700BF5F59056013B50446B9B101F082
:105680000F03022B0FD10A091046019208F07AF895
:105690000028019A05DA074907480AF02BFA6060EA
:1056A000002002B010BD054AFFF778FEF8E7084673
:1056B000F7E700BF7F590560B07405606F5805605B
:1056C00010B404460B46006A6278012A03D15DF8E3
:1056D000044BFFF72DBCA16A0246606A10315DF8E9
:1056E000044B02F0D3BC000070B505460C460029FF
:1056F0002DD0CA0706D5836A49105B6B686ABDE87E
:10570000704018478B0716D004F00F040909022CCB
:105710000AD0062C0CD0062919D0836AC9B2406A77
:105720001B6BBDE870401847BDE87040FFF7C8BF6D
:10573000836A9B6BE2E7836A0968DB68406A984783
:105740002279034B2146284653F82230D7E770BD13
:105750003C5C05602DE9F74F04460D4616461F4692
:1057600028464AF031FD20B1CEB9A36A39469B6E76
:105770004CE028464AF020FE08B186B1F5E7002D3E
:1057800055D0AB0753D16B684FEA132BDBB21E2BFE
:105790001BD1F6B1083505EB8B0B5D450DD103B080
:1057A000BDE8F08F43465AF8041B2046019209F1E8
:1057B0000109FFF7CFFF019A19E03B46324655F841
:1057C000041B2046FFF7C6FFE7E71F2B23D1002E5F
:1057D000E0D0D4F80C8005F1080A4FF0000986F0FB
:1057E000010208F10103E3600BF1FF330093009B1A
:1057F0004B45D7DC0BF101013B463246204655F8BC
:105800002110FFF7A7FFA36A41469B6A606A03B0B5
:10581000BDE8F04F1847202B03D1AD6886F0010694
:105820009EE72D2B03D1AB68002BA6D19CE7294620
:105830002046FFF759FFA36A3A463146DB6E606A9D
:1058400003B0BDE8F04F1847026A38B51278044635
:105850000B46072A06D0022A04D0154ABDE8384074
:10586000FFF79CBD9D6885B9A36A1021606A1B6B18
:105870009847A36A0021606AD3F8C8309847204649
:105880000121BDE83840FFF7A1BBAB070BD12B7955
:10589000AF2B08D12046A968FFF726FF2046BDE8B8
:1058A0003840FFF77DBC29462046FFF71DFFE0E7A3
:1058B0009159056070B5437804461546CE68012BB2
:1058C00006D1036A0A4629461B8BFFF7A2FC7061CA
:1058D0000023716920461A46FFF7BDFBF168204698
:1058E000FFF702FF062D05D1A36A0021606AD3F8F5
:1058F00084309847A36A0121606AD3F8B850002326
:10590000AC461A46BDE87040604738B505460C46BF
:10591000C968FFF7E9FEA1682846BDE83840FFF7EF
:10592000E3BE0B79342B70B504460D4610D189685F
:10593000FFF7DAFEED68AD6885B9A36A1021606AE9
:105940001B6B9847A36A04220221D3F89C301AE00B
:10595000836A1021406A1B6B9847ECE7AB071FD1A5
:105960002B799A2B13D1A36A1021606A1B6B98477D
:10597000A9680029E6D02046FFF7B6FEA36A0422F4
:105980000321D3F89C30606ABDE8704018479B2B18
:1059900006D1A9682046FFF7A7FEEB689968E8E7FB
:1059A00029462046FFF7A0FECCE710B504468968DB
:1059B000FFF79AFE0021A36A606ADB6CBDE8104025
:1059C000184700002DE9F7438D68044616465DB977
:1059D000002A75D0836A02222946D3F89C30606A77
:1059E00003B0BDE8F043184715F0030740F08A8084
:1059F0002B79372B13D132B1836A02220121406AFD
:105A0000D3F89C30984720462946FFF76DFEA36ADD
:105A1000606AD3F8A03003B0BDE8F04318479F2B6D
:105A200070D1EB681A79A12A5AD1A22101AA03F1F7
:105A300008004AF0DDFBA968804621B38B0722D11C
:105A40000B79372B1FD136B1A36A411C0222606A41
:105A5000D3F89C309847A9682046FFF745FEA36A13
:105A60004FF00109606AD3F8A0309847474510D13C
:105A7000B9F1000F24D1A36A0322791C606AD3F81C
:105A80009C3098471CE020464FF00009FFF72CFEA1
:105A9000ECE7019B53F82710A9B18E0713D10E79BB
:105AA000A6F13700464246412046FFF71DFEB9F1F8
:105AB000000F11D04EB9184A29462046FFF76EFC58
:105AC00003B0BDE8F0830026EEE7A36A606AD3F86E
:105AD000A03098470137C9E7002EFBD00F4AEBE70B
:105AE000AB685BB19A0709D11B79372B06D1042229
:105AF000294603B0BDE8F043FFF7DCBE0522294686
:105B00002046F6E729462046FFF7EEFDA36A03226A
:105B10000121D3F89C3062E7AA590560C759056096
:105B20000122FFF74FBF70B50D46C9680446FFF765
:105B3000DBFDA968A36AC1F30711606AD3F894304A
:105B4000342916BF40390221C9B2BDE87040184758
:105B5000F8B54F680C46002689683F0A0C340546A4
:105B6000FFF7C2FD02360834B74200DCF8BD54F836
:105B7000041C2846FFF7B8FD54F8081CAB6A090955
:105B8000686AD3F898302539C9B29847EAE72DE911
:105B9000F0414E680C4601278968A6F10D080C34C7
:105BA000360A05465FFA88F8FFF79EFDB74201DB2B
:105BB000BDE8F08154F8041B2846FFF795FDAB6A59
:105BC0004146686AD3F8983001379847EEE72DE9E7
:105BD000F0414E680D4689680446360A0127FFF7F2
:105BE00083FD032E89BFD4F80C804FF0000808F124
:105BF0000103E3607B1C9E4222DC032E55DDE56839
:105C0000606A6B1C2946E360A36A9B6E9847A36A8F
:105C10004146606A9B6A9847A36A0121606A9B6853
:105C20009847A36A606A1B6E9847A36A606ADB6D37
:105C30009847A36A2946606A9B6ABDE8F041184705
:105C4000023729692046FFF74FFDB74207DAA36AFA
:105C5000606A5B6D9847A36A606A5B6E9847E96803
:105C6000A36A01F00F02606AD3F898300A2A11D1B2
:105C7000C1F30711262916BF35390621C9B2984745
:105C8000B74205DAA36A42460021606A1B6F984753
:105C90000835AFE70A79852A01D13221EFE78A6812
:105CA0000AB90721EBE73321E9E7BDE8F08110B538
:105CB00004468968FFF718FD0321A36A606AD3F8D8
:105CC0009430BDE8104018472DE9F0474E6804466F
:105CD000D0F80C8001F108055FFA86F90027360A32
:105CE000A9F11E03D3F1000949EB030908F10103EF
:105CF000C360B74206DBA36A4146606A9B6ABDE89F
:105D0000F0471847013755F8041B2046FFF7ECFC15
:105D1000B742F0DAA36A42464946606A1B6F984769
:105D2000E7E7000001F00F03022B70B504460FD027
:105D30000B79492B01D04F2B02D10123A37070BDE9
:105D40004A2BFCD0502BFAD0482B0DD10D696DB9E0
:105D5000A378002BF3D1638A002BF0D020461D4A94
:105D6000BDE87040FFF71ABBCD68F0E7A37843B3F6
:105D7000238A8E6801339BB2012B23820ED1618A64
:105D8000D4E90903D1B1D3F89C3000229847A36A23
:105D900002220021606AD3F89C30984729462046A9
:105DA000FFF7A2FCA36A606A31099B6B9847A36A5C
:105DB000606AD3F8A030BDE8704018471B6C984764
:105DC000E5E7638A2946204601336382BDE87040D7
:105DD000FFF78ABCE65905602DE9F041C568044625
:105DE000D1F80C800E46AB1C0022D8F808106F1CAE
:105DF000C3602B46FFF7AEFCB1682046FFF774FC8A
:105E0000A36A3946606A9B6E9847A36A2946606A0E
:105E10009B6A9847A36A606A4FF0FF319B68984776
:105E2000D8F80C102046FFF75FFCA36A3946606A79
:105E30009B6ABDE8F04118472DE9F047C668044663
:105E4000D0F814A00D46B31C06F10108B0F81A9062
:105E5000C360038B8682A0F81680438388684AF06B
:105E6000B3F9F8B9E768A8687B1CE3604AF0A4FAC4
:105E700020B9A36A4146606A9B6E9847A36A394677
:105E8000606A9B6A9847E9682046FFF72DFCA36A81
:105E90004146606A9B6A98473B460122A9682046B2
:105EA000FFF758FC29692046C4F814A0A4F81A90FA
:105EB000FFF71AFCA36A3146606A9B6ABDE8F047A7
:105EC00018472DE9F347C66804460D46731CC360A6
:105ED00088684AF079F90246E8B9E7682046A96877
:105EE0007B1CE3603B46FFF735FC2046E968FFF783
:105EF000FBFBA8684AF060FAD8B92B690BB96B694B
:105F000023B1A36A3146606A9B6E9847A36A3946FB
:105F1000606A9B6A984701AA712105F11000002769
:105F20004AF066F981464F450BD169692046FFF773
:105F3000DBFBA36A3146606A9B6A984702B0BDE802
:105F4000F087019B53F82780D8F808004AF03CF905
:105F50000246F8B9D4F80CA02046D8F808100AF187
:105F60000103E3605346FFF7F5FB2046D8F80C1019
:105F7000FFF7BAFBD8F808004AF01EFA0028D8D17B
:105F8000A36A3146606A9B6E9847A36A5146606A6D
:105F90009B6A98470137C6E770B58D6804463DB9DE
:105FA000836A2946D3F8C430606ABDE87040184758
:105FB000AB070ED12B795E2B0BD1A968FFF794FBB1
:105FC000E9682046FFF790FBA36A0221D3F8C430AA
:105FD000EAE729462046FFF787FBA36A0121D3F8A9
:105FE000C430E1E710B504468968FFF77DFBA36A7A
:105FF000606ADB6DBDE8104018472DE9F0414E683E
:1060000001F108040546360A04EB8607BC4208D1B4
:10601000AB6A3146686A0022D3F89C30BDE8F04193
:10602000184754F8041B2846FFF75EFBEEE7896823
:10603000034610B441B9826A406AD2F89C400A46CD
:1060400023465DF8044B18474A68120A022A0BD10E
:10605000CA684AB1940707D11279AC2A04D1062242
:106060005DF8044BFFF726BC18465DF8044BFFF7BC
:10607000C4BF4B682DE9F04105460E461F0A01F1E9
:1060800008080024BC4201DBBDE8F08158F8041B7D
:106090002846FFF729FB6B683BB10234284656F8C7
:1060A0002410BDE8F041FFF76FB90134EAE710B5FD
:1060B0000446FFF7DEFF2221A36A606AD3F8983016
:1060C000BDE81040184770B58D68044645B9836A2D
:1060D00001222946D3F89C30606ABDE87040184719
:1060E000A9071ED16B68DAB2922A1AD11B0A022BB9
:1060F0000CD1EB6853B19A0708D11B79AC2B05D1B1
:1061000029460322BDE87040FFF7D4BB294620464C
:10611000FFF7AFFF6968A36A0122090AD3F89C3030
:10612000DAE729462046FFF7DFFAA36A0122D3F80F
:106130009C301146D0E70000184B2DE9F041D3F810
:106140003C7304460D463FBBC66801228968731C38
:10615000C3603346FFF7FEFAA36A1F2101225B6981
:10616000606A9847E96851B12046FFF7BDFAA36A13
:106170003A460121D3F8B8503B46606AA847A36A63
:106180000121606AD3F8C4309847A36A3146606A37
:106190009B6ABDE8F0411847BDE8F0810008002087
:1061A000026A10B512780446072A04D00A4ABDE8EC
:1061B0001040FFF7F3B8896859B9836A1021406A23
:1061C0001B6B9847A36A606AD3F8C030BDE81040E3
:1061D0001847FFF789FAF5E7145A056010B4026A08
:1061E000044640780B46012804D110465DF8044B64
:1061F00001F03DBFA16A606A18315DF8044B01F0FF
:1062000045BF00008B072DE9F14F04460D461646A9
:1062100011D001F00F03022B16D1D7074FEA11114D
:1062200004D401B0BDE8F04FFFF7D8BF01B0BDE81E
:10623000F04FFFF745BA4968CBB22D2B7BD00BD876
:10624000062B0DD02C2B12D04E4A2946204601B0E9
:10625000BDE8F04FFFF7A2B82E2B7FD09D2BF3D1D6
:10626000002EF1D105F10802090A20467BE0022A3E
:1062700002D0A968FFF738FAEF68002FE4D017F0D2
:106280000309E1D17B68B846DAB28E2A0DD1022E1D
:106290004FEA132805D007F1080A08F1FF3BD9455A
:1062A00011DB08F1010857F8288098F80430312BE9
:1062B00024D1022E0FD1A36A606A5B6E9847A36A4D
:1062C000DB6C012115E05AF8041B204609F1010995
:1062D000FFF70AFAE3E7D8F808102046FFF704FAB8
:1062E000012EA36AECD19B6D606A9847A36A0021D6
:1062F000DB6C606A01B0BDE8F04F1847322BA3D1C8
:10630000012ED4E909030CD15B6D9847A36AD8F834
:10631000081000221B6D0909606A01B0BDE8F04F4A
:106320001847022E01D11B6E9847A36A0122D8F8A4
:1063300008101B6DEFE7AA68002A85D0002E83D1D4
:106340005168090A022907D1D3682BB1980703D1F4
:106350001B79AC2B3FF478AF083286E7002A7FF434
:1063600073AFA96821B901B0BDE8F04F00F074B86F
:106370008E0703D10B790A46922BE1D005F1080272
:10638000012172E72E5A05602DE9F047C7681E46C5
:1063900004460D46BB1C3946904607F10109C3600F
:1063A000836A406A9B6A9847A36A4946606AD3F841
:1063B00088309847A96800222046FFF723FF2D69FF
:1063C000002D2DD141462046FFF78EF9236AA06AA1
:1063D000197806291DD1D0F8C8302946606A984737
:1063E00020460121FEF7F2FDA36A606ADB6D984743
:1063F000A36A3946606A9B6E9847A36A606A4946F9
:106400009B6A9847A36A606AD3F88C30BDE8F0476E
:106410001847B200D0F8A450606A0532A847E7E7F1
:106420002B79AD2B07D1A9683B4600222046FFF708
:1064300091F9ED68C4E7E9682046FFF755F9A36ACA
:10644000606A0121D3F884309847731C424629467C
:106450002046FFF799FFCBE72DE9F84304460D46A8
:10646000904601F1FF3900264FF0FF37B9F1FF3FA9
:106470000CD17B1C05D1A36A2946606AD3F8A830E9
:1064800098470026AE421DD1BDE8F88358F8261083
:1064900071B18A070CD10B79222B09D101370BD1AD
:1064A000A36A37464A463146D3F8AC30606A98470B
:1064B000013609F1FF39D9E72046084ABDE8F8431B
:1064C000FEF76CBF58F82610B7424FF00002204686
:1064D00008BF89680136FFF795FED3E7495A056082
:1064E0002DE9F7430446904699460F4629B91946C7
:1064F00003B0BDE8F043FFF7F7B8C668731CC3608C
:10650000156845B315F0030225D12B797B2B22D1D9
:10651000A9680192FFF7E8F8019A31462046FEF794
:106520005DFD019AE9682046FFF76CFE4B4608F1D5
:106530000402791E2046FFF7D3FFA36A3146606A42
:10654000DB6F984703212046FEF740FD03B0BDE80E
:10655000F043FEF753BD29462046FFF7C5F8204615
:1065600000223146FEF73AFDA36A606ADB6D984768
:10657000DCE737B50C46054601AA7A2104F108008C
:1065800049F036FEE3680146019A2846FFF7A8FF66
:1065900003B030BD8B6803F00F03022B2DE9F04FE1
:1065A00004460E462DED028B87B040F00581CB6886
:1065B000002B00F00181980740F0FE801A792C2A08
:1065C00040F0FA809A6802F00F01022940F0F4804E
:1065D00012097C2A40F0F080DB681A79302A40F0FA
:1065E000EB809B6805AAA42104A8049349F000FE4F
:1065F000431E022B00F2E080059901280A6800F092
:10660000CD800228D1F804A000F027818D68E90729
:1066100040F1D2806B0800F0CF8032B1930704D1F3
:106620001179A639022940F2C780BAF1000F08D0CB
:106630001AF0030F05D19AF80410A639022940F286
:10664000BB80B3681AF0010B776908EE103A336922
:10665000218B08EE903A6369E6680293638B06F13A
:106660000208618306F10401019306F1010306F1BA
:106670000309A6820393E382E16005D151462046D7
:106680000392FFF731F8039A11462046FFF72CF8E2
:10669000A26A4946606A926E9047A26A4146606A61
:1066A000926A9047A26A606A526D9047002218EE83
:1066B000101A2046FFF7A6FD18EE901A2046FFF7A5
:1066C00013F8A26A711C606A926A904729462046B4
:1066D000FFF70AF8A26A0E21606AD2F89820904764
:1066E000A26A4946606A926A9047A26ABBF1000FAB
:1066F00058D1936D606A9847A36A606A1B6E984789
:10670000002DA36A606AACBF00210121D3F8983044
:106710009847A36A42460121DB6E606A9847029B54
:106720006361019B6383002F44D0A36A606ADB6DC1
:106730009847BBF1000F03D1A36A606ADB6D9847ED
:1067400039462046FEF7D0FFE568606A6B1C294693
:10675000E360A36A9B6E98478BF00101A36A013145
:10676000606A9B689847A36A3146606A9B6A98474B
:10677000A36A606ADB6D9847BBF1000F03D1A36A7F
:10678000606ADB6D984727B1A36A2946606A9B6AF5
:10679000984707B0BDEC028BBDE8F08F9246032509
:1067A000024642E7606A526D904751462046FEF726
:1067B0009BFFA5E73D46D6E7E5682046238BB4F866
:1067C0001A906F1C63836FEA4543D4F814A005F157
:1067D00002086FEA5343F168E782A382EB1CE3608F
:1067E000FEF782FFA36A606A0121D3F884309847DC
:1067F000A36A3946606A9B6A9847A36A4146606A01
:10680000D3F8883098470022B1682046FFF7FAFC99
:1068100031692046FEF768FFA36A3946606A9B6EBD
:106820009847A36A4146606A9B6A9847A36A606A70
:10683000D3F88C30984771692046C4F814A0A4F8A6
:106840001A90FEF751FFA36A2946606A9B6A07B057
:10685000BDEC028BBDE8F04F18470325DDE62DE9BE
:10686000F74F044690460F4629B9194603B0BDE8D4
:10687000F04FFEF739BFC668321D06F1010A06F176
:10688000020B06F10309C260D8F80050002D00F099
:10689000F28015F0030240F0EE8029797B2940F068
:1068A000EA80A968CDE90032FEF71EFFA16A606A9E
:1068B000496D8847A8212046FEF78BFC019AE968BC
:1068C0002046FFF79FFC009B3146204602220093A2
:1068D000FEF784FBA26A0321606A9268904708F180
:1068E0000402009B791E2046FFF7B9FFA36A606A85
:1068F0006FF002019B689847A36A1021606A1B6BC6
:106900009847A36A606A1B6E9847A36A5146606AFB
:106910009B6E9847A36A3146606A9B6A9847A36A50
:10692000606A5B6D9847A36A0122606A5B692121F6
:106930009847A36A606A0821D3F898309847A36AF9
:106940005A460021606ADB6E9847A36A606A5B6DF5
:106950009847A36A606A5B6E9847A36A606A1B6E79
:106960009847A36A0022A921606A5B6C9847A36AD2
:10697000606A5B6E9847A36A606A5B6E9847A36A19
:10698000606A5B6D9847A36A00220A21606A1B6DEA
:106990009847A36A606A1B6E9847A36A606A1021D1
:1069A0001B6B9847A36A0321606AD3F8BC5000238D
:1069B0001A46A8472046FEF7F3FBA36A4A46002181
:1069C000606ADB6E9847A36A606ADB6D9847A36ACA
:1069D000606A10211B6B9847A36A4946606A9B6EE8
:1069E0009847A36A606A02219B689847A36A594640
:1069F000606A9B6A9847A36A606A5B6E9847A36A5D
:106A0000606A5B6E9847A36A5146606A9B6A9847C2
:106A1000A36A0022606A5B6CA9219847A36A1021CF
:106A2000606A1B6B9847A36A606A5B6D9847A36AAC
:106A3000606A5B6D9847A36A0321606AD3F8BC5013
:106A400000231A46A8472046FEF7AAFBA36A606AFD
:106A5000DB6D9847A36A606A4FF0FF319B689847E7
:106A6000A36A606A49469B6A9847204603B0BDE81E
:106A7000F04FFEF7C3BA294620460093FEF734FED6
:106A8000A26A606A526D90472046A821FEF7A1FBDA
:106A9000A26A606AD26D904715E72DE9F041CD6892
:106AA00004460E4635BB0378BBB1036A1D78A5B911
:106AB000D121FEF705FEB1682046FEF715FEA36A58
:106AC0002A460121D3F8B8602B46606AB047A36A12
:106AD000606ADB6DBDE8F0411847B1688B0700F0D4
:106AE0009A8001F00F03022B40F09C802046FEF7B5
:106AF000FBFDECE7AF0740F099806B68DAB25B2AE8
:106B000014D1ED68002D40F08F80006A0378072BC8
:106B100040F08880896801F00F03022B40F08280EA
:106B20000422BDE8F041D140FEF702BA562A13D143
:106B300001228968FFF766FBE9682046FEF7D4FD6D
:106B4000A968A36A0909606AD3F898303F39C9B2C5
:106B500098470222B16859E0572A65D11B0A5F1E87
:106B6000013355F82310FEF7BFFD002F03DDA36AA4
:106B7000606A5B6D9847B1680835002600222046A0
:106B8000FFF740FBBE424DDA0136BE4203DAA36A8C
:106B9000606A5B6D9847002255F8041B2046FFF79A
:106BA00031FBEFE76B68DAB2062A3FD1B768002FF6
:106BB0003CD0B8073AD17A68D1B2062936D11B0A3F
:106BC000B3EB122F32D1022B30D1BB6823B199071E
:106BD00002D11B79222B29D0FB6823B19A0702D15D
:106BE0001B79222B22D0A9682046FEF77DFDE9689B
:106BF0002046FEF779FDA36A606A1B6E9847002263
:106C0000B9682046FFF7FEFA0022F9682046BDE881
:106C1000F041FFF7F7BA00293FF468AF0B793A2B40
:106C20007FF464AFBDE8F081AB07BBD029462046B6
:106C3000FEF75AFD00228DE70023032A2DE9F041DB
:106C400004460D46164642700162C36080F8342047
:106C500002D1C08E50BBA0634FF00008A36A31463A
:106C6000606A1B682A46A4F83680984706212046A9
:106C7000FEF7ACF96778EE68012F04BFA5F8228013
:106C8000A5F82480B6B1B20714D133793F2B11D1C6
:106C9000B168FEF729FDA36A606AD3F8C03098474F
:106CA000A36A606A5B68BDE8F04118478000FBF7A3
:106CB0000CFCD0E72B784BB931462046FEF714FD8B
:106CC000A36A1B6B1021606A9847E4E7072B16D173
:106CD000012F12D1002346222046A370574BF168A2
:106CE000FEF79CF92B8B032B07D131692046FEF769
:106CF000C3FCEB8A43EA8010E8827169DDE7022B6E
:106D00001BD1A36A3168DB68606A98476378012BFE
:106D100007D100234C222046A370494BB168FEF7EF
:106D20007DF9F1682046FEF7DFFCEB8ADB07B2D580
:106D3000A36A606ADB6D9847C2E7033B032B4FD819
:106D4000012FD6F80C8005D104223946206AFEF7BF
:106D5000EFF86F83A36A3168DB68606A98472B7825
:106D6000032B24D1A36A0122D3F89C300021606A4E
:106D700098472B78062B28D1A36A606A1B6C98472A
:106D800001212046FEF79CFCA36A606A1B6C9847B1
:106D9000A36A606A1B6C98470023B268414620468C
:106DA000FFF7F2FA2B78062B7FF475AF88E7042BF8
:106DB00004D1A36A0222D3F89C30D7E7052BD8D19F
:106DC000A36A0322D3F89C30D0E720460121FEF7C6
:106DD00077FCA36A0121606AD3F884309847DBE727
:106DE000012F04D104220A212846FEF7A1F8172119
:106DF0002046FEF765FC16212046FFF7EFF9B16843
:106E0000A36A0909606A9B6B98471A212046FFF71D
:106E1000E5F931692046FEF767FC0A212846FEF7AE
:106E200077F80378042BA36A3FF44BAF1D690A215E
:106E300042880023606AA8472DE700BFBD7B006041
:106E4000C57B006001F00F03022B70B504460D46B0
:106E5000164602D00B4AFEF7A1FA31462046FEF74D
:106E600043FCA36A606A5B6D9847266A290920463D
:106E70003378033B032B9CBF73682362FFF7AEF9A3
:106E8000266270BD2E5A05602DE9F04F002787B0AD
:106E90004FF0010B0446B9463E46B84603A81D46CE
:106EA000CDE9022105AAA42149F0A2F90190019B94
:106EB0009F4211D126B1A36A4946606A5B6B98472D
:106EC000029AD4E90903002A73D0D3F8BC403346B0
:106ED00042462946A04713E0059B53F827A0BAF184
:106EE000000F5BD01AF0030F58D19AF80420A62A9D
:106EF00019D1B00707D5304A51462046FEF74EFA61
:106F000007B0BDE8F08F1D2F01D92C4AF4E70BFA2A
:106F100007F246F00106DAF8081049EA02092046AD
:106F2000FEF7E2FB20E0A72A0ED1A26A46F0020695
:106F3000606A126C9047DAF8081008F101082046E0
:106F4000FEF7D2FB0137B2E7A82A27D1DAF80C20E6
:106F500072B191070CD11179AA2907D19268204604
:106F6000DAF80810FFF76EFF0135EBE7AC290FD018
:106F7000DAF8081001F00F02022A01D0104ABBE72C
:106F8000A26A0909606A926B9047DAF80C10D4E79C
:106F9000062251462046FEF78DFCE5E7B30701D5F2
:106FA000084AA9E7B8F1000F01D0074AA4E7514603
:106FB000B5E7D3F8B8408AE7635A0560725A0560AE
:106FC000805A0560A15A0560B95A056070B50D4632
:106FD000417804461346012903D12A46FEF719F9E0
:106FE0006861A36A606A9B6C98476E6900232046BB
:106FF00031461A46FEF72FF8A36AB18A9B6B606A86
:107000009847E96829B18B0703D10B79A32B08BFF7
:107010000021204602230022FFF736FFB08A70BD10
:10702000002389681A46FFF72FBF00002DE9F743B8
:107030000C4689680546FEF757FBE668002E58D0D7
:107040007768296AFBB209788E2BA36819BF04F10F
:107050000C0601273F0A0836072903F00F024DD11D
:10706000022A49D11A099A2A4AD13268117930295B
:1070700046D19268002A43D10A212846FEF720FB18
:107080002A6AD36A128D3AB9414A2846316803B058
:10709000BDE8F043FEF782B95978C9070FD55968A2
:1070A0002846FEF70DFB022FAB6A0BD8D3F8B84089
:1070B00000230221686A1A46A047012417E0013A1A
:1070C0000833E0E7726811793229EFD1B468217989
:1070D0003029EBD1916801225B6C0909686A9847F5
:1070E000A1680324002301222846FFF7CDFEA74212
:1070F00027D803B0BDE8F0830024F8E7022AFBD1CB
:1071000040F2B622B2EB131FF6D133681A79302A57
:10711000F2D19C68002CEAD014F00302ECD1237960
:107120002F2BE9D1AB6A1146686AD3F8B8401346F1
:107130000192A04733682846019A9968FEF742FCFD
:10714000BBE704F10108A30056F82410B8451AD291
:107150000A79322A17D13344D3F8049099F80430CD
:10716000302B10D189680022AB6A0909686A5B6C10
:10717000984700230122D9F808102846FFF784FE1B
:1071800008F10104B3E72846A046FEF7ADFAF7E799
:10719000DA5A0560026A0B4610B512780446072ACF
:1071A00006D0022A04D0074ABDE81040FEF7F6B820
:1071B00020461946FFF73AFF2046BDE81040FDF78C
:1071C000EFBF00BFF25A0560D1E90212FFF73ABEE5
:1071D000036A10B504461A8BFFF7F8FE01462046F5
:1071E000BDE81040FEF7FABF036A10B504461A8BDB
:1071F000FEF739F801462046BDE81040FEF7EEBF25
:107200002DE9F04F8D6887B004462B79032B0AD106
:107210002946FFF7E9FFAA69D38A43F00103D38225
:1072200007B0BDE8F08F026AD28AD20706D4634A5B
:10723000294607B0BDE8F04FFEF7B0B8162B40F076
:10724000AF80C668E968331D06F1010A4FEA111BD9
:1072500006F10208C36006F10309FEF745FAA36AC6
:10726000606A00225B6CAA219847A36A606AD3F81F
:10727000BC7000231A461946B84759462046FEF707
:10728000ADFFE7686369BA1C606A0293E260638BD2
:10729000228B01937B1C6283A26A1946E382926A65
:1072A000A78203939047012251462046FDF796FEA0
:1072B00059462046FEF704FA2046AC21FDF789FF27
:1072C000A96820460022FEF79DFFA26A4146606A37
:1072D000D2F890B00022D847A26A5146606A926AFA
:1072E0009047A26A606AD2F8CC209047A26A606A8E
:1072F000526D9047A26A606A40F2E621D2F814A06B
:107300000122D047A26A606A0821D2F898209047EB
:10731000A26A0021606AD2F86CA04A46D047A26AED
:10732000606AD26D9047A26A3146606AD2F890A036
:107330000122D047A26A4946606A926A9047A26ACF
:107340000121606A926890472046FDF757FEA26AC5
:10735000606AD2F8D0209047A26A4146606A926A79
:10736000904729692046FEF7BFF9039BA26A194698
:10737000606A926E9047029B3146606A6361019B2E
:107380006383A36A9B6A984769692046FEF7ACF954
:10739000A36A3946606A9B6A07B0BDE8F04F184798
:1073A00005AA7A2105F1080048F022FFEB680146A2
:1073B000059A2046FFF753FA32E700BF0B5B0560E2
:1073C0002DE9F04F85B004460026DFF820A1019199
:1073D00002AA019B4221B14603F1080048F008FFD0
:1073E000236A83461D8B5E450AD1019BD9680B79C0
:1073F000032B51D12A462046FDF735FF054659E0BB
:10740000029B03AA6C2153F8263003F10800009375
:1074100048F0EEFE039B074619680A09732A0DD04F
:107420004FF001082046FEF75FF9B84528D3009BCE
:10743000D96859B12046FEF757F907E0022807D06E
:1074400052462046FDF7AAFF09F101090136CAE7B5
:1074500059680B09412B0DD040F2264293420BD0C4
:1074600040F2EA42934209D040F23F329342E7D1E0
:107470000425E9E70125E7E70546E5E70325E3E716
:10748000039B0022606A53F8281008F10108A36AE0
:1074900009091B6D9847C8E7442B17D18E682A4607
:1074A00020463146FDF7DFFEB2690546D38A43F038
:1074B0000103D3820026ABEB0909B1450BD829465D
:1074C0002046FEF78BFE05B0BDE8F08F2A46204629
:1074D000FFF77CFD92E7A36A0121606A0136D3F8C9
:1074E000B87000231A46B847E7E700BF315B056074
:1074F000F0B58D6885B004460E4605F00F030A2BE3
:1075000006D0002D30D0AB072ED12B79652B1ED1A4
:107510000295002503AA652102A848F069FE039B95
:10752000002140F2DA5203EB8000984215D1F26854
:1075300040F22A439A4236D1236A1F78B7B1394ABA
:107540003146204605B0BDE8F040FDF727BF622B6D
:107550000AD1AB680293ED68DCE753F8047B9742ED
:107560000CBF01310331E0E70021E0E7A36A606A64
:107570005B6B9847A36A0521606A9B6B9847A36A77
:107580003A460121D3F89C30606A984703AA2946FD
:107590002046FDF77DFEA36A02223946DB6A606A57
:1075A000984705B0F0BDA36A0027606A5B6B9847F7
:1075B00006F10C0002AA6A2148F01AFE0646B742FC
:1075C000D4E9090311D1D3F89C3000223146984701
:1075D0002946002503AA2046FDF75AFEB542D4E904
:1075E00009030BD1DB6D9847DBE7029A9B6B52F8DE
:1075F00027200137916809099847E0E7029ADB6A7A
:1076000052F825700122B968090901919847FB6871
:107610002BB9019920460135FEF7E0FDDEE7190997
:10762000F8E700BF4F5B0560836A37B504460D4637
:107630005B6B0021406A9847A36A606A10211B6B4C
:10764000984701AA29462046FDF722FE01992046C7
:10765000FEF7C4FD03B030BD10B4026A04464078A2
:107660000B46012804D110465DF8044B00F0FFBC26
:10767000A16A606A20315DF8044B00F007BD00008C
:107680002DE9F04F2DED028B83B0C5681E460446F0
:107690000E9B0F460192294608EE103AAB1C0122C0
:1076A00005F1010AC360FDF799FC39462046002721
:1076B000FEF71AF8A36A00225146D3F89030606AA8
:1076C0009847A36A2946606A9B6A9847A36A606ADA
:1076D000D3F8CC309847D4F80C8008F10103E3606C
:1076E000019B9F421BDB2046FDF788FCA36A606A72
:1076F000D3F8D0309847A36A5146606A9B6A98478E
:1077000018EE101A2046FDF7EFFFA36A4146606AA3
:107710009B6A03B0BDEC028BBDE8F04F18473346BF
:10772000D4F80C90043601371A68009209F101026E
:10773000E260009AD2F808B0BBF1000F47D1019A7D
:10774000BA4237D10025A36A606AAB46DB6D984721
:10775000009B2046D968FDF7C7FFCDB1A26A102172
:10776000606A126B9047A26A5946606A926A9047B3
:10777000A36A1021606A1B6B984729462046FEF7D2
:107780002DFD20462946FFF767FF2046FDF736FC12
:10779000A36A01224146606AD3F890309847A36AF1
:1077A0004946606A9B6A9847A36A0121606A9B68A0
:1077B000984795E720461F4A1968FDF7EFFD2046D8
:1077C00003B0BDEC028BBDE8F04FFDF717BC1BF01A
:1077D00003052DD19BF804205B46762A03D1DD6892
:1077E000DBF808B02D09A36A606A5B6D98475946BB
:1077F0002046FDF779FFA36A0821606AD3F8983024
:107800009847A36A4A460021DB6E606A9847002DBC
:1078100098D029462046FEF7E1FCD4F80CB020466B
:107820000BF101025946E2600222FDF7D7FB8FE718
:107830000025D8E76C5B05602DE9F043C768164664
:1078400085B00D467A1C394603930446C260022275
:10785000DDE90C98FDF7C2FB039B16BBA36A03216D
:10786000606A9B68984729462046FDF73DFFA36A5A
:107870006FF00201606A9B689847A36A1021606AF2
:107880001B6B9847A36A3946606A9B6A98472046F3
:107890004146FDF729FF204605B0BDE8F043FDF75E
:1078A000ADBB324629462046CDF80090FFF7E8FEF2
